:0200000407FCF7
:100000006046FC072505FC072D05FC074505FC0798
:1000100000000000000000000000000000000000E0
:100020000000000000000000000000005D05FC076B
:1000300000000000000000005F05FC076105FC07F0
:100040006522FC079D38FC071D27F007B125FC073A
:100050006305FC076305FC075922FC076305FC07E1
:100060006305FC076305FC07DD23FC07E723FC07AA
:10007000F123FC07FB23FC070524FC076305FC07B1
:10008000F525FC076305FC076305FC076305FC0712
:100090006305FC076305FC076305FC076305FC07B4
:0200000407FCF7
:100510000348854601F088FE00480047F129FC07A2
:100520006046FC070F4880470F480047042071468B
:10053000084203D0EFF309800C490847EFF3088025
:100540000A49084704207146084203D0EFF30980A6
:1005500007490847EFF3088005490847FEE7FEE72B
:10056000FEE7FEE7C93AFC071105FC071125FC0769
:10057000B524FC0770B50E4604460022032151F74E
:10058000EAF9054652F7B6FB6880284651F7F4F9B8
:1005900052F7B0FB7188884200D3084601462046D6
:1005A00051F7D1FA002070BD0246FF4B92009A58D5
:1005B0000120126900290ED0517F5E239B5C002B25
:1005C0000BD0052906D1517E090702D5917C090778
:1005D00000D400207047917DEFE70229F9D004296B
:1005E000F7D00529F6D10020EDE7024630B593009B
:1005F000ED4A0120D2581269137DD47E157F234025
:10060000547D2C40012901D0022909D1957C527ECC
:1006100015402A0704D41A462243D20700D10020ED
:10062000032901D0042904D1590702D4610700D459
:10063000002030BDF8B514460D4610465BF76DFC42
:10064000240A002830D0D949A2008B5801271E8BDC
:10065000BF023E431E83132826D0142824D0152819
:1006600011D088582D210A5C0123D10600290CDA0B
:100670000146A0318E7D002E07D08B753D2120468E
:1006800045F7B8FE10E00220F8BD110703D50021A0
:10069000A0308175F7E7A0308375204643F7A4FBAF
:1006A0002946204643F7E3FB0020F8BDFFB581B0A3
:1006B0001546170A10465BF730FC002838D013287F
:1006C00036D0142834D0290A8C00B84E152815D0FD
:1006D000FF20294603305BF707FD30592D21095CC7
:1006E000C90603D5A030C07D00280ED03D026D1C88
:1006F000A8B25BF712FC19280CD00FE03059012189
:10070000A030C175022005B0F0BD3D21384645F747
:1007100071FE0DE0A8B201215BF7CDFB305901223B
:10072000018B5202914301833846029943F79FFBA4
:100730000020E8E7F0B59D498700C95900268031BF
:100740004A8C8B8C1B2A00D21B228C8B944200D2A9
:1007500022468A849A4200D001260B8CCD8C1B2B1A
:1007600000D21B23CC8B9C4200D22346CB84AB42CD
:1007700000D001260B8ECD8D9C46FF2349339D4230
:1007800001D21C4600E02C460D8DA54200D3254623
:100790000D86654500D001264C8EA4468C8D9C426A
:1007A00000D21C464B8DA34200D21C464C866445A9
:1007B00000D00126EB080B3B9BB29A4200D21346B5
:1007C0008B86522379495843794BCA591C68803229
:1007D0000419D28C8034E285C9591A688031801896
:1007E000498E803001863046F0BD10B50446714810
:1007F000008D8007800F012800D000206071002844
:1008000007D057F7F3FE01460622A01D5DF74EFC08
:1008100010BD06226849A01DF8E770B50546002402
:1008200042F7A9F82855641C082CF9DB70BDF8B50F
:10083000022707700126044646700D4688795F49F5
:10084000C96988472A210855287900210007000F27
:10085000A07003005DF77EFC07050709100D100B63
:100860001000A1700AE0A67026E0032002E0A77045
:1008700004E00420A07001E001281DD0A888000A2F
:10088000801FC0B2A0721F2800D9A172284642F76B
:1008900027F9811D2046A27A0B305DF707FC284618
:1008A00042F71EF901460622201D5DF7FFFB28795D
:1008B0004006C00FE070F8BDA172F0E7F7B54468DC
:1008C0008CB02546243503950546074624354CF75C
:1008D0001BFA06464420405B5221484334490968CC
:1008E0004018C0304089694608840121384647F7DE
:1008F0004AF94CF77EF809900E9800698088000A42
:10090000C1002F480818298940182D495B315DF72F
:1009100053FB01466868039D4718403528890690B7
:100920000090A0680099381A400140095DF744FB27
:100930000A910098C019401A400140096946A06018
:10094000098C4900C919891C49014909884204D206
:100950000699401840014009A06001460998081A0C
:10096000400118494009884215D900202B89A26806
:10097000401CD21852015209A260EA89521CEA8135
:10098000A368099A9A1A520152098A42EED801B212
:100990000D9847F799F9A1680998081A4201607DF6
:1009A0005209824221D80FE02C7EFD071879FD07FD
:1009B0004C76FD074C7EFD07CF79FD07B47FFD0720
:1009C00016020000FFFFFF032A898918490149091F
:1009D000A1602A890A99511A814206D901210D98EC
:1009E00047F772F9E889401CE8812989A0685DF71A
:1009F000E3FAF1802889B080208A3081A88870814C
:100A00000020B081C807C00FB073A88852214843A6
:100A10008E30308230464CF782F903984663204688
:100A20000FB0F0BDFFB5002093B006460124FE498B
:100A300049680A7821460C2A0CD06A4611730022B4
:100A40001192002E09D015990291169D1F2D54D98F
:100A5000402052E000242246119413990291149DE3
:100A6000F4E7029989184978012905D0172903D09C
:100A7000182901D0192912D1631E04E003AFFF5CCD
:100A80008F4204D05B1E5BB2002BF7DA03E0002B31
:100A900001DB4A2003E003AB1955641CE4B20B00F0
:100AA0005DF758FB1D2610101010101010101026A6
:100AB000262626262626262626262626101010102E
:100AC00010102600119B03E00BAFFF5C8F4204D097
:100AD0005B1E5BB2002BF7DA03E0002B01DB4A2040
:100AE00006E0119F0BABD9551199491CC9B2119160
:100AF0000299895C521C89188AB2AA4201D2002844
:100B0000AFD0AA4200D04A20761CF6B2022E01D203
:100B1000002894D017B0F0BD10B50022134607E0AE
:100B200084186478012C07D0845C521CA21892B2FD
:100B30008A42F5D3184610BD80188378FAE7F0B5DD
:100B40000646A9B01546002084006318DA789F781D
:100B500012025B783A4352BA1B041A430B5D072416
:100B60001B061A43231A9F0020AB401CDA510828A9
:100B7000EAD300218A0090190746C37880781B02C7
:100B8000034378785BBA00040343B05C10AA000604
:100B90000343601A800013503846223043780078AF
:100BA0001B0203433846203047785BBA3F04007885
:100BB0003B43000603430F27781A8000491C13505B
:100BC0000829D7D35CF706F9014630465CF77FFD6C
:100BD00000282DD05CF7FEF8034620AA10A968462D
:100BE0005DF780F900226846A11A8B009600C75C69
:100BF0007119CF70C75A3F0A8F70C7583F0C4F709A
:100C0000C35820311B0EAB550F239B1A9B00C65CAB
:100C1000CE70C65A521C360A8E70C658360C4E70AC
:100C2000C3581B0E0B70082ADED3002029B0F0BD7C
:100C30000120FBE7F7B500251746064641232A4663
:100C400029460A205AF7B4FF0446002E10D0012E80
:100C500002D0022E0CD105E02022611C002041F7B9
:100C6000A3FE04E0621C3946019841F74DFE207056
:100C700020465AF7B6FF2846FEBDF8B56B480090EF
:100C800007680C46002F7BD005461C35287E0028BF
:100C900076D0012802D0022872D102E02078002804
:100CA00019D038896249002688423AD107204BF78B
:100CB00023FC002835D042233E2200215D485AF70C
:100CC00077FF082101702178002913D0032141709A
:100CD0002178817043E055480226611C14302E763D
:100CE000202204465DF7E2F922465349304641F797
:100CF00015FE45E0002146701F22531A1B194718A4
:100D00005B78491CBB702029F7DB00213F22531A76
:100D100047181B1920375B78491CBB702029F6DB6C
:100D20001DE043493889491C88421AD108204BF7F5
:100D3000E3FB002815D022233E2200213D485AF72C
:100D400037FF09210170217800291BD01221417041
:100D50000021FF224318491C9A702029FADB4DF725
:100D6000D7FE2E7640205BF7A6FB009841F7DAFE0F
:100D70005AF761FF00980068002801D041F7C9FDCB
:100D80000020F8BD002146701F22531A1B19471876
:100D90005B78491CBB702029F7DBE0E770B5087869
:100DA00000250C46012809D01D2810D02B2812D070
:100DB0004022194655F7BCFE284670BD5BF765FA20
:100DC0001948012504601D4857F745FAF4E71C4807
:100DD00041F708FDF0E71B4801680029ECD101212B
:100DE0000160194841F704FEE6E770B5104D174C55
:100DF000223DAB422ED10F4809232A460021C01EB6
:100E00005AF7D6FE044608221149401C5DF74EF9F8
:100E100020790821084320710025257020464DF7D0
:100E200077FE284670BD00004C7EFD07287AFD073E
:100E3000252000000408000089E7F107030C0000EA
:100E4000C3C3C3C35077FD07CC7DFD070DC3F007B7
:100E50005CE5F107A047E5E7F1B584B00498FF49E8
:100E600080000C5804980502A81D0290002C15D093
:100E70006068818804290CD34188861D0C38009154
:100E800001903146049857F7BCFFF549884206D1D6
:100E900060680C385AF7CFFE0020606033E4F178C8
:100EA000B2780F02019928431743C880384640386A
:100EB0003F2819D803223946049854F729F8060028
:100EC000E6D0B07B0128E3D13420B07329460A3143
:100ED0000423E448029A5AF76BFEB189418010213D
:100EE00001705AF77EFED3E7616834200870022152
:100EF00000985AF74FFD05463146009A5DF7D6F83F
:100F000068782978000208436168C880E878A97881
:100F1000000208436168062F08810BD0042F09D016
:100F20006068052F10D00C385AF785FE28465AF70E
:100F3000ACFDB1E760688188052913D329798172F6
:100F40006168287988720DE0818805290AD329799A
:100F5000817261682879887260688188062901D366
:100F60006979C17260685AF73CFEDFE7FFB587B068
:100F70000E4609985AF7D1FF0999090A03910028EA
:100F800076D08800B54905900D58B749B079096BFE
:100F90000A225043B478081841F7A2FD019068680E
:100FA000002808D0012C2DD00398FFF755FF686862
:100FB000002802D026E0022C5AD1B088012702284E
:100FC00005D30198417800780C02044302E051F700
:100FD00091FE044651F78EFEA04201D20224002762
:100FE00020464C3083B29E49A048099A5AF7E0FD4A
:100FF000241D68604480002F01D0002000E03420D0
:101000006968087068680028BAD0811D0091B288AC
:101010000199841C071D01928088238882189A42B6
:1010200009D8009A8018019A5DF740F8398801982C
:101030000818388009E01A1A009BC0185DF736F8C6
:1010400020883880696834200870388804280FD3D5
:10105000009841780278080210432188001D8842D8
:1010600007D280B220803988814207D9388002E0D7
:1010700068E0884202D9696834200870388821887D
:1010800088425FD1686800990C380190039857F73F
:10109000B8FE69680978002951D1714988424ED05B
:1010A00003990F0201993843C880208802210190DA
:1010B0005AF770FC0490228800995CF7F7FF0498B7
:1010C00000283FD0696800208880019802226B4682
:1010D000039907C36868049B821C011D801D41F7AA
:1010E000D9FB6968087004985AF7CFFC6868418892
:1010F000002902D00178002954D0018940393F29C4
:1011000044D8017830291ED00146544A05980C393C
:101110001058083041F722FD69680398891D41F78E
:10112000CAFB4628686801891FD00322039853F739
:10113000EFFE00282CD0808A00282CD028E00398CD
:10114000FFF78AFE42E04A49098D0906C90F07D018
:1011500048490C380968099A898D89B25AF75EFDA9
:1011600068680C385AF767FD12E00322039853F7BA
:10117000CFFE04000CD039460A3104233948099ABD
:101180005AF716FDA1894180102101705AF729FDF7
:10119000002068601AE0686800220189039841F71E
:1011A00085FBF5E70189084640383F280ED8032221
:1011B000039853F7ADFE002808D0808A002805D197
:1011C000686800220189039841F770FBB07941F704
:1011D0007AFC00200BB0F0BDFFB58BB00646169828
:1011E0000027022821D00D980188149881427DD3D0
:1011F0007188084640383F2802D8159853F7C9FE31
:101200000C98361D0088149A80190E995CF74EFFD1
:101210000C980188149808180C9908800D9801887A
:101220001498081A0D99088069E100200E9D079016
:1012300069782C78090221433180E978AC78090279
:10124000214371808C46403904242D1D02460346FB
:101250008E46402900D3287861460DE0AC7DFD071D
:10126000FFFF0000260E0000E078FD07010A0000E5
:101270004C7EFD075876FD0704291FD0052914D0A0
:10128000062918D070463F283ED8159853F781FE9E
:101290000006000E04D0FC48008D0006C00F31D0BF
:1012A00002230120F94A002712E0697800290FD0B3
:1012B000F74A17230CE0F74A0F2309E0522802D01F
:1012C000D22802D002E0142000E01520F24A1F23A9
:1012D000002A7DD098427BD28000105804900028CC
:1012E000F7D0002008900590708800E006E14038B3
:1012F000402803D32878052430716D1C701D0090A0
:101300000498AFE03027EDE03327EBE0522864D0BB
:101310000CDC4B283FD004DC41286AD042285AD14B
:1013200011E04C2820D0502855D140E0632830D01F
:1013300004DC572818D061284DD19BE06C2864D07C
:10134000772848D109E00098297801700098641C3A
:10135000401CA4B26D1C009081E00498401C0490D5
:101360000178089881427AD10098A41C401C410859
:101370004900881C009068782A7800021043088091
:101380000599AD1CA4B2002969D0089000200590F1
:1013900065E00120FBE71022294600985CF786FEF5
:1013A000009810341030A4B21035009057E0204659
:1013B00040301499039088420DD840222946009865
:1013C0005CF774FE009840300090039884B200E00F
:1013D00079E0403543E0342741E00822294600986F
:1013E0005CF764FE009808340830A4B20835009019
:1013F00035E00622294600985CF758FE0098A41DA7
:10140000801DA4B2AD1D009029E01498001B80B28D
:1014100003903088001B001D81B2012007900498C2
:10142000401C04900098401C400840000090049824
:10143000007857281CD04228CDD100980170090AA5
:10144000417000982946801C0090039A5CF72EFE9C
:1014500003980399201884B20098401800900498CB
:10146000401C04900078002820D0002F19D01DE0E7
:101470004908E2E71498001B80B203900098039A91
:10148000401C41084900012000910790294600981E
:101490005CF70CFE03980099201884B20398081892
:1014A000DCE70D990988A14200D32FE70D98008849
:1014B000A04208D304990978002904D1079900298A
:1014C00003D1A04201D034270CE00D99001B088005
:1014D0000C9801880098801B001F08180C99002F99
:1014E00008800CD07088042809D0062807D040381E
:1014F000402804D30E984079707100E034273846B4
:101500000FB0F0BDFFB581B01F4616460C46104621
:101510005AF703FD00253F2802D02189062908D06B
:101520003B4632462146019854F7BFF80546284607
:10153000B4E4000701D50225F9E720780028F6D1A8
:10154000300AA11D41F7C1F8F1E7F3B581B0019868
:10155000524C850060590F464068CE8801462431C0
:10156000009146F7E3FE00994D4A40310091C98948
:10157000701A80B2904214D2B14212D060593146F2
:10158000406845F78CFF60590522791C1F305CF7D5
:101590008DFD019805210002401C80B25AF78BFC9A
:1015A000FEBD60590522791C1F305CF77FFD009855
:1015B000808841F767FFFEBDF8B53A4C06468500C6
:1015C0000F4660594821095C24290ED10069102278
:1015D000791D2E305CF76AFD615925204031087273
:1015E00000221146304652F739FE60594821095C05
:1015F0000C291FD100691022791D2E305CF756FD91
:1016000060595F210069095C09072DD401462E311C
:1016100010221E305CF76EFD00280CD060590921A5
:1016200040300172304653F737FB01460022304606
:1016300052F79FF9F8BD0421684601706A460521FA
:10164000304652F741FB6846017860200143684606
:101650000170304653F720FB0146684602780123AB
:10166000304652F79BFAF8BD304653F715FB012878
:101670001AD06059072140300172002211463046CD
:1016800052F7ECFDF8BD00004C7EFD0714F3F107A6
:101690001CF3F10778F3F107B4F3F1071879FD07AC
:1016A000FF7F00002C7EFD07615900200969C031D1
:1016B000887160590421026930461E3252F704FBDA
:1016C000605901694031897F002907D01A214030D3
:1016D00001720021304652F74BFED3E71B21403008
:1016E0000172304652F799FECCE7F8B5E64C054654
:1016F0008600A0594822125C192AC3D140224930E1
:10170000491D5CF7D3FCA0594022E04949305CF701
:10171000F1FC002805D0DD492846203959F749FF5A
:10172000B0E70B21684601706A460521284652F74A
:10173000CBFA68460178602001436846017028466C
:1017400053F7AAFA0146684602780123284652F761
:1017500025FA97E7FFB581B003980C46060A0025E5
:101760005AF7DBFB002818D0132816D0142814D001
:10177000C748B700C0592030407BC00628D5039821
:101780005AF7CBFB15280CD0A07941F79CF93046CD
:1017900045F7B3FD032806D015E0A07941F793F98A
:1017A0001FE002251DE0BA48C0592030407B4007A9
:1017B00004D53D21304641F7BEFD04E03D22002125
:1017C000304641F7C6FD3D21304644F713FE08E0A0
:1017D00020460C38AF498180C68020464DF798F9E5
:1017E00001252846A4E6F1B58EB00E9841F778F9A8
:1017F00004460E98694600794006C00F0A9006908C
:101800000A208883628BA449101A88427ED2E08A1B
:1018100006287BD31921C901884277D8238BFF2161
:10182000F5318B4272D85B1C990059184143491C11
:101830000A2349105A43914268DC217F00290CD1C8
:10184000617F002909D1A17F002906D1E17F00290C
:1018500003D12021095DC90658D027462037797861
:10186000C906C90E491F0C2950D2A18A81424DD800
:10187000E17C00294AD0421E082A01D9082000E054
:10188000401E814242D805A844F79CFD00283DD166
:10189000824D0622E861214608A85CF707FCA8787B
:1018A0002E46803E00287ED06079800901280AD02B
:1018B00020460A994AF7C4FE00285ED03821095C08
:1018C000002954D059E020464AF727FFE861002854
:1018D00004D10BA920464AF736FFE861F16A887AFD
:1018E000012801D0042810D1E86900280ED0062272
:1018F000253010315CF7FEFB002807D1E869F16A5A
:101900002030C07AC97B884200D100E0A2E0E969BA
:10191000002932D0062208A825315CF7C7FBE86908
:101920002B21095C07AA253006914AF76BFD002898
:101930000FD0E8692030C07A002811D16846584994
:10194000808B49F711FD07AA012155484AF75AFD36
:1019500006E007AA01210BA84AF754FD00280CD085
:10196000E9696846808B323149F714FD05E0421879
:10197000527D002A08D010296CDBF06A407A0228D8
:1019800006D0032804D00EE0491C1029EFDBF4E751
:101990006846808B0A2806D307AA20460A994AF788
:1019A00031FD002856D0002205A920464AF7D4FD73
:1019B00000284FD1F06A407A02280BD0032809D0C2
:1019C00000236846828A08A806994AF7E6FD00289F
:1019D00002D02EE00123F4E7E18A68460180218BE2
:1019E0004180618B81807878062241096846817345
:1019F0007878C106C90E684641732146801D5CF7A0
:101A000055FB0E9800794006C10F68460173838A22
:101A10002146B26D45F783FC0146B065684641F743
:101A200029FB0020B065214668461C31808A44F7B6
:101A30001CFD47F7BAFC194C20342079002805D04A
:101A4000002109205AF750FB002020710021084690
:101A50005AF731FA54E510B57022124912485CF772
:101A600025FB10493822383910485CF71FFB0E4817
:101A70000F49A03001600B49703941600A490D4897
:101A80002039086010BD70472C7EFD07EC7DFD07F6
:101A90001879FD0706080000770C0000E479FD07BF
:101AA00004E5F107783BFC0720000840C000FC0774
:101AB0008CBFF107FF3F1000F8B53E4C6088C607A9
:101AC0006088F60FC005C50F608840084000608040
:101AD0006088FF270137B843608040F771FF40F707
:101AE00075FF00220821022040F764FF002800D083
:101AF00001206188A18861884908490031436180DB
:101B000061882A02B94311436180F8BD70B501258F
:101B100029492A020A60BFF34F8FBFF36F8F27490D
:101B20000A6027490B681C0A240240231C430C60EE
:101B3000214980390A601F494C880626B443241D78
:101B40004C804C882C434C804C8838252C434C804E
:101B50004C889C434C8001280FD14888330218439D
:101B6000488048881043488048882A0210434880AB
:101B70004888012292039043488070BD10B5114CF3
:101B8000E18A114ACBB21189248BC904890E6404FD
:101B9000640E001B093141430120C002401A80B28B
:101BA000584340031189000E090A090201431181BB
:101BB00010BD00002020005080E100E080E200E045
:101BC00008E400E000230050002C005010B50F493D
:101BD00003205AF73EF9002103205AF76CF910BD93
:101BE00010B5044601230A4A00210A4859F7E0FFCC
:101BF00009498C4201D1032103E008498C4201D1FB
:101C0000002101704CF784FF10BD0000E83BFC0789
:101C100011FC000001080000A5A5A5A5C3C3C3C30E
:101C2000F8B5020205464123092134480A3259F722
:101C3000BFFF27210170044600201F233049AA005E
:101C40008F581E1A4936BE5D2718401C7E7020280A
:101C5000F6DB00203F238E581F1A4937F65D271800
:101C60002037401C7E702028F5DB5BF7B3F8014677
:101C7000601C5BF72CFD002812D10A2000906A46F8
:101C80000521284652F720F8284653F705F8009911
:101C900060221143CAB201460123284651F77EFF54
:101CA000204659F79EFFF8BD70B5054604460089E9
:101CB00014490C3488B088421AD100201F216E4686
:101CC0000A1AA25C3254401C2028F9DB202231463B
:101CD00020465CF7EBF900203F210A1AA25C32543F
:101CE000401C2028F9DB20226946A0185CF7DEF9A9
:101CF000284649F7FAFA08B070BD0000270D000029
:101D00002C7EFD072620000010B50C460123FE4A5C
:101D10000021FE4859F74CFFFD4A2178117000213F
:101D200001704CF7F5FE002010BD10B5F64A0C46C8
:101D30000123521E0021F54859F73AFFF54A217850
:101D40001170002101704CF7E3FE002010BD10B5AA
:101D5000ED4A0C460123921E0021EC4859F728FF5A
:101D6000ED49A288CA8722884A870A46E38840321A
:101D7000138062888A87002101704CF7C9FE002019
:101D800010BD10B51A4682230021E04859F710FF14
:101D9000112101704CF7BCFE002010BDDA4A10B5CD
:101DA0000123413A0021D94859F702FF112101705E
:101DB0004CF7AEFE002010BDD34A10B50123403AC7
:101DC0000021D24859F7F4FE112101704CF7A0FE12
:101DD000002010BD10B51A4602230021CB4859F748
:101DE000E7FE112101704CF793FE002010BD10B5E5
:101DF0001A4601230021C54859F7DAFE1121017066
:101E00004CF786FE002010BD10B51A4601230021B4
:101E1000BE4859F7CDFE112101704CF779FE002024
:101E200010BD10B51A4682230021B84859F7C0FEEC
:101E3000112101704CF76CFE002010BD10B51A4640
:101E400082230021B14859F7B3FE002141701121CE
:101E500001704CF75DFE002010BD10B51A4601233D
:101E60000021AA4859F7A4FE112101704CF750FE39
:101E7000002010BDA44A10B50823333A0021A3481E
:101E800059F796FE0446031DC21C811C401C59F7DD
:101E900067FC0146002000290BD0112121706070E1
:101EA000A070E070A080E08020464CF731FE00205A
:101EB00010BD2070F7E77FB508460C3859F7BBFE18
:101EC00059F763FE00246D460390204659F757FEEC
:101ED00061004919641CE4B24880042CF5D38A4A95
:101EE0001023313A0021894859F762FE6D461ECD14
:101EF0001EC00021103801704CF70AFE012004B00A
:101F000070BDF8B5804A0F4608230A3A00217F4881
:101F100059F74EFE814D0446286B6E12B043304394
:101F200028637F493888496A88476060286BB043D6
:101F30000021286338886080217020464CF7E8FD36
:101F40000020F8BDF8B5704A0D460423093A002177
:101F50006E4859F72DFE714E0446306B7712B84328
:101F6000384330636E4A2888926A69689047306BBC
:101F7000B8430021306328886080217020464CF7E8
:101F8000C7FD0020F8BD70B518460D465E4A0146F3
:101F90000123323A5D4859F70BFE044628780028A1
:101FA00002D0012805D101E05E4800E05E4840F71C
:101FB00019FC1220207020464CF7AAFD002070BDAD
:101FC00010B518460C46504A01460823133A4F48AC
:101FD00059F7EEFD218801229207891809684160AE
:101FE00021884180002101704CF792FD002010BD36
:101FF00010B518460C46444A01460423123A434899
:1020000059F7D6FD228801239B07D2186168116019
:1020100021884180002101704CF77AFD002010BD1D
:1020200010B51C4608464AF760FA374A0123113AB0
:102030002146364859F7BCFD002101704CF768FD78
:10204000002010BD70B50C8818461646082C00D329
:102050000824CA788B78150252225443334A1D4310
:102060001368E31880331D830B7911686118803180
:102070004A8B120A12021A434A83234A0146012359
:102080000E3A224859F794FD002101704CF740FDAB
:102090000021304659F70FFF002070BD10B5887839
:1020A0001C46002801D0012200E0002208881146C9
:1020B00044F7E4F9144A01230D3A2146134859F72D
:1020C00077FD002101704CF723FD002010BD70B595
:1020D00018460C460C4A014601230C3A0B4859F7A6
:1020E00067FD227852214A43104900230D68521996
:1020F000C0321382227852256A430D685219C032C9
:1021000053822278522413E043FC000001080000AF
:10211000B476FD07DD76FD07A479FD074000004099
:10212000B47FFD07C3C3C3C3A5A5A5A54C76FD0712
:10213000096862435118C0318B82002101704CF74D
:10214000E7FC002070BD70B518460C46014601231F
:10215000314A324859F72CFD227852214A433049FE
:1021600000230D685219C0325381227852256A43E8
:102170000D685219C0329381227852240968624353
:102180005118C031CB81002101704CF7C1FC0020F7
:1021900070BD70B5184616460D461F4A014601230C
:1021A000D21C1E4859F704FD04462888082800D38D
:1021B000082046F7ADF8002805D000212170A97845
:1021C0006430017701E01220207020464CF7A0FC1B
:1021D0000021304659F76FFE002070BDF8B50E465D
:1021E00010491C4615460020C2008A5AA24209D155
:1021F000C00040184768002F07D02A4631461846CD
:10220000B84702E0401C1928EED322463146284642
:1022100000F074FBF8BD000038FC0000010800006D
:102220004C76FD07F83BFC071CB5094800900948AF
:10223000019005460126009C05E0E36807CC334386
:102240000C3C98471034AC42F7D3FEF765F9000018
:10225000B03FFC07E03FFC070148012101807047C7
:1022600008150050F8B5CD4F0820388005252C07FB
:1022700060898007534E22D0A08A400701D501F023
:10228000ABF9218C802001432184FF21718004213E
:102290003180218830220A432280218803220A4388
:1022A00022804949F288B3881204D2188A42F9D3AD
:1022B00035806C49498A6180218C81432184388929
:1022C0004007FCD4208830218843208022880320C6
:1022D000824322800022009001231A403B4F3A7033
:1022E0002A064BD06D1E3288022717439F43378042
:1022F0000422728037881743378022880A4322805D
:102300002288024322803288520701D500BFFAE7B3
:1023100022888A432280228882432280F288B788DA
:102320001204D2192A481218042A10D900224D4842
:1023300082820779002F01D019221701026A921CAC
:10234000BA4200D33A4602621A460098C4E74548AA
:10235000818A491C818289B2142900980ED30021F8
:10236000404A9182117A002900D01321126A521E2C
:102370008A4200D80A463B48026200986189890770
:1023800006D0618981436181608C0121884360842A
:102390002089802101432181208A042188432082D1
:1023A000A08A8007FCD53FF7EAFF2E48C06909499B
:1023B000086009480168490700D500BE016849075F
:1023C000FCD5F8BD00160050E9030000E93FFC070A
:1023D00061F8FFFF080200401000004080B50A20AD
:1023E00000F044F880BD80B50B2000F03FF880BDC0
:1023F00080B50C2000F03AF880BD80B50D2000F0CB
:1024000035F880BD80B50E2000F030F880BD0000AA
:10241000F8B5144600910646012700213846324699
:102420005BF788FE0F4AD36B0B40956B05401D434D
:1024300000D100BED36B0B40956B05401D4300D10E
:1024400000BEB740084B1F80D56B0D40916B01401B
:10245000294300D100BE009804437000181844803E
:10246000F8BDC046B00EFD0704300050F0B5C0B254
:1024700003460A3B01210A469A4093B20B4D5C1970
:10248000661C5E400A4B1C8800272E4203D07F1C2E
:102490007608B6B2F9E79443BAB20D4695402543A3
:1024A0001D8081403C480160F0BDC046FEFF010038
:1024B0000E14005014490A88802313430B800368CC
:1024C000124A13604368536083689360C368D360A3
:1024D000036913614369536183699361C369D3617C
:1024E0001062304803685362436893628368D36222
:1024F00043691363C3685363006990634888800627
:1025000000D4FEE700BE7047120000500000FD0737
:1025100020490A89042313430B810A8902231343A8
:102520000B810A88402313430B801B4A012313604D
:102530001A4A082313804A89802313434B81036876
:10254000174A13604368536083689360C368D3601D
:10255000036913614369536183699361C369D361FB
:102560001062104803685362436893628368D362C1
:1025700043691363C3685363006990638889800665
:1025800000D4FEE700BE4889074A10408018001DAD
:10259000488170470800005080E200E0003300509E
:1025A0005000FD0728ED00E0FC7F000070470000B0
:1025B00010B50F4CA1880F200840022806D004282F
:1025C0000BD00C280CD00128F4D110E02088022177
:1025D000884320802088802106E001F037FAE9E76F
:1025E00001F034FA2088012188432080E2E710BD01
:1025F000041100500520000701883022914301801A
:1026000001880322914301800421415E002906D5FF
:102610000E490A88520702D50A88D2070DD1808850
:10262000C00609D50A480188090605D5012181801F
:10263000018880229143018070470888022202436A
:102640000A800888012290430880704700020050E9
:10265000000100502048018802220A4302800549F7
:10266000491C02D202889207FAD4002101814089D4
:102670007047C0465F79FEFF10B51749174A0A80B8
:1026800000224A80164A40231360BFF34F8FBFF3E6
:102690006F8F00281ED00A88124B13400278D20296
:1026A0001A430A80104A134640330C881C40437872
:1026B0009B0123430B800B881340827892021A43BC
:1026C0000A8009224A804A8802239A43C07840003F
:1026D0001043488010BDC046001500500140000066
:1026E00080E100E0FFF70000FFFBFFFF00280CD0B7
:1026F00000BF00BF00BF00BF00BF00BF00BF00BFE2
:1027000000BF00BF00BF401EF0E77047B0B50C46E9
:102710000025202D04D040F72EF960556D1CF8E7F8
:102720000020B0BD80B50D480078C00708D1052055
:1027300059F7F3FB00280FD12A200A49085C04E06E
:102740000748417D012907D1007D41424141C21E18
:1027500050425041084380BD002080BDF976FD07FE
:10276000507DFD07F87CFD0770470000F0B593B081
:102770005821394C605C002866D1019137A003A92B
:102780000A46274678C878C2384608300A461032CA
:102790000346F0CBF0C20A46203278C878C22E4CED
:1027A00020680025401C206062686A4162601095C4
:1027B0000F95119012921834402220465BF776FC58
:1027C0000A2D33D00295002120292CD02748425CC5
:1027D0009300E55847187A789200A658AD19E5504D
:1027E000FE78B600A05968401025E841A051BD7898
:1027F000AD00675938186051A75847401420C741A9
:10280000A750E058C019E050A35943401820C341D5
:10281000A3516059C0186051A35843401920C341C7
:10282000A350091DD0E7029D6D1CC9E700200A4C8A
:10283000402807D003A909582218936959189161B3
:10284000001DF5E710200199401E6054C0B28000C1
:102850002018806913B0F0BDF03FFC076578706107
:102860006E642031362D62797465206BD03CFC0794
:102870005821044A0023535400BA136053609060F7
:102880007047C046F03FFC0710B519467F20420252
:102890000548022359F78CF9D121417000240470B6
:1028A0004CF736F9204610BD0108000070B51149FB
:1028B0000A88088801242043088008881E2398433A
:1028C0000880A5020C4845800525058005886D0710
:1028D000FCD480880D8814262E430A25AE430E8032
:1028E0000D88A5430D801A400C889C43A2180A80CD
:1028F00070BDC0462200005000160050B0B513460F
:10290000024600200C4C02280BD025889D4202D0A4
:102910000834401CF7E7C000074C20184468002C1E
:1029200004D17F204002834203D1044C1846A047C3
:10293000B0BD0020B0BDC046A03FFC078928FC0701
:10294000F8B5264FBC68204646F7A9FA174EB16A7B
:102950000022B2620D18164928465BF72DFB7861FC
:1029600014494143491919200001002902D0411A94
:10297000E13189B23961396808220A433A60716AE3
:10298000002911D0A1420FD20B4A1278002A0BD194
:102990003279002A00D11046611A326A8918891DDD
:1029A000814200D301463162F8BDC046B00EFD073A
:1029B000710200008FFDFFFFE93FFC0780B506486C
:1029C0000021016001F024F80120C00703490A68D2
:1029D00082430A6080BDC046AC76FD0730000040EF
:1029E00080B546F75CFA80BD80B546F749FA80BDF0
:1029F00000B59BB0C94808210E91018000201590B8
:102A00001A90C74C1A98032812DC00201990199AC2
:102A10001A99092A09DC28224A43A118199A920016
:102A200088501999491C1991F1E7481C1A90E9E757
:102A300023691598C1430120002B074600D00F469B
:102A40003A01B84DAE6B1643EA6B1792AE63189716
:102A50003E0F002B0F4600D11F463A019219179BDB
:102A60001A43EA636569002D034600D00B46DE0E6B
:102A7000002D0F4600D12F467A019219A94EF56B11
:102A80001543B26BF5635D011543B563E669002E2E
:102A9000054600D00D466F0E002E0A4600D1324684
:102AA000D201D2199F4FFE6B1643BA6BFE63EE0143
:102AB0001643BE63A669002E00D00846870E002E7E
:102AC00000D131468901C919964EF26B0A43B16BA8
:102AD000F26382010A43B2631599F163B163189AF4
:102AE00022616361A061E5611A918FA51A9803289C
:102AF00038DC00201990199809282FDC19981A99A8
:102B00004900695AC140C80728D028201A99414372
:102B10006118199A92008958491C00D100BE1A996F
:102B200041436118199A92008958002913D01A99C3
:102B300048432018199989004058C117199A5BF722
:102B4000F9FA1A9A12015BF7F5FAF26B0A43B16BC4
:102B5000F2630143B1631998401CCBE71A98401CFB
:102B60001A90C3E772480088C046C04601201690FC
:102B70007070704A118807201890814311800F21CE
:102B8000080205252F07798DFF2217921346D233AD
:102B90001A462F320A9211420DD00146FF31654C80
:102BA00022880A40690351182180218840220A4363
:102BB00038218A4322801190798800290C9300D112
:102BC0005D49189871827A8C169B1A437A84159AFB
:102BD0001A921A9A142A02DA1A9A521CF8E77A8977
:102BE000169B1A43022314939A437A817A895206D8
:102BF000FCD5798015991A91192189011A9A8A426E
:102C000002DA1A99491CF6E7189579890322099284
:102C10009143798179890906FCD5798C169A91437B
:102C20007984464B159C1C60798A4025294379821A
:102C3000798A0F95A94379825C61414999621104AF
:102C40000D91D962398880221292114339801A94E9
:102C5000189D1A99632903DC1A99491C1A91F8E7FF
:102C60003988090600D400BE34490988490700D0D4
:102C700000BE1699314B19603249098831863249B4
:102C80000968F16231490A88F2814988159C1C6003
:102C9000B181798A0F9A11437982798A9143798235
:102CA0005C61274999620D99D9623988129A11435A
:102CB00039801A941A99632903DC1A99491C1A91CC
:102CC000F8E71E4A116881431160388812998843D9
:102CD00038801F481F495BF702FA69021E485BF7FC
:102CE000FEF9FEF7D0FE1D481D492A225BF7DEF9EA
:102CF0004B2082001B481C495BF7D8F91B48E93080
:102D00001BA1002840D0174A121851239B00D2184B
:102D10000B18183370CB70C20C30F2E70033005040
:102D2000C00CFD07B00EFD07FF003F00FF03FF01D1
:102D300042000050820000505A0400000000F407D6
:102D4000204F101AACFFF807A8FFF80710FEF8078D
:102D50000044FD07143100000076FD07FC76FD07F6
:102D600058ECF107600DFD0714EBF107FFFEFFFFC4
:102D700000FD07009C3FFC079B3FFC0701FD07008F
:102D80009C3FFC07983FFC0751208000F54D281818
:102D9000F5A11CC91CC01C20F6494885CD62F64926
:102DA00009200870F548F6490160F648F6490160C7
:102DB000F649F7480860F7480A210170F648159966
:102DC0000170F64832210170F54818210160F5487C
:102DD0000E9C0460F4481F210160F44820211091EA
:102DE0000160F34821210160F24822210160169D13
:102DF00028020B90801DF0490860F0490860F048F7
:102E0000F049016000F0E8FB28463FF7BAFD388939
:102E10003021884338813889129A104338813889A3
:102E20002843149988433881388920433881388C65
:102E300010433884788AA043788238890F990843F0
:102E40003881388A042188433882B88A8007FCD5C3
:102E50001391388C1699084338840803798DC9007A
:102E60000140388CD84A024050183884388C2821C8
:102E70000143502081433984388C06210143398431
:102E8000788A0E9908437882388C1299884338845E
:102E900038890F9988433881788D0A990842CB4840
:102EA000189900D04180169A95072868C8490840AB
:102EB00028603F204002C74E3168814354030819FF
:102EC0003060C548401C316801433160BC4800682F
:102ED0003FF7F0F928680B99084318952860BF4818
:102EE000159D0571C570BE4A10880A9089203881E9
:102EF0003480388812990843388038880999884383
:102F00003880108814990843108000F069FC3FF75E
:102F100057FD3FF75BFD1AA805800C9A1AA8008898
:102F2000902804D81A98401C1AA90880F6E7AD4BDF
:102F30001888099058880890AB4CA0880790E088C2
:102F40000690D8880590588B0490A8480088039074
:102F500020880290159919805980A548A080E280A8
:102F6000D980C3202080A34A0E9810801AA801801F
:102F70001AA80088902804D81A98401C1AA908801A
:102F8000F6E71AA8159901801AA80088902804D895
:102F90001A98401C1AA90880F6E71AA8159901800A
:102FA0001AA80088902804D81A98401C1AA90880EA
:102FB000F6E7914B914E92480190159801282BD835
:102FC0000C905E801798988016981880D888C00753
:102FD000FCD100210C46084680B2179A920090421C
:102FE00017D8325C3518AD785540169A1540E2B2C4
:102FF0009540C9B22943641CE2B2082A07D1159C46
:10300000A2B27F4DA954641C159400210C461030C7
:10301000E2E70C98401CD1E771480A99018000262C
:10302000744806806F4809990180089941806E496B
:10303000079A8A80069ACA80059AC280049A4283B7
:103040006A48039A02800298088038881299884357
:1030500038806C49083101983CC83CC15821694806
:103060004654066046606848169C04705B48C4700D
:10307000FFF7A4FC65490C710C721596FE824F2077
:103080000862788CA02101430F9881437984E00382
:1030900017905F4E5F4860490818604940188008E3
:1030A000401E0C905E4B394D1C46388900064CD5AD
:1030B0001898006B1799084247D148480088C00704
:1030C00043D159F78AF95148407A04283DD11598DF
:1030D0001A901AA8042149F78DFF002835D01698B8
:1030E000306030680028FCD11898C069F64DA96995
:1030F000884201D21599A9612A78012A0BD1A861C9
:1031000015982870FFF7D2FB2882FEF7D5FC00281F
:10311000F24D17D019E0411AC9091929EF4D14D3FE
:10312000E94DA861FFF7C2FB2A8A111A00D2811A61
:1031300089B21829E94D08D3E3490882FEF7BCFC9F
:10314000002802D1E04816990170FFF7EBFA002839
:103150002346A9D072B6E4480079022862D02868D4
:10316000406A60E0600DFD0700FE07009C3FFC0721
:103170009B3FFC07FC76FD07F976FD075076FD07BF
:10318000F03CFC075476FD07143EFC075876FD071B
:10319000583DFC07B476FD07B576FD07DD76FD07E3
:1031A0005C76FD076076FD076476FD076876FD07AF
:1031B0006C76FD077076FD074876FD074476FD07BF
:1031C0004C76FD070044FD07FFEF00008200005031
:1031D000FFFEFFFF00020040FFFF1F005877FD07C2
:1031E000F0300050002400506228005002260050A9
:1031F0008080000020200050003500501001FC07A6
:103200005040FC07F03FFC07B477FD07B00EFD0708
:10321000FC000040D43A00001005FC07030004F84D
:103220000033005000201A901889C00700D049E1EF
:10323000E448407801280ED11698306030680028A4
:10324000FCD11898C069AB490968884200D239E1BD
:103250000020DC49487058F77AFA2346002800D14C
:1032600030E1A148C07800287DD0B88AC00700D0DE
:10327000B6E09D480088002875D19F48806A0028E4
:1032800002D02868406A1A9000F0C2FB9648817804
:103290001AA858F767FF002865D0189800694006FB
:1032A00061D4914881781AA849F7A4FE00285AD021
:1032B0004BF749FE2346002800D103E14AF7A4FA60
:1032C0002346002800D1FDE0874881781AA858F7E6
:1032D00049FF00283BD018980069400637D482483F
:1032E00081781AA849F786FE002830D0B54A907A2E
:1032F00000219172136A189DE96B804A11401231C6
:10330000E9637A490978022900D13233012800D1D2
:1033100021330A939802E96B794A11400143E9632A
:10332000E86B70490840372189054018E8631A980E
:103330007449884200D300BEC002099064215AF744
:103340003BFE099900290A9A15D0001F15E0624832
:103350000078C00702D13FF7F1F904E000203FF701
:103360003DFA3FF703FAFFF7DDF92346002800D1C5
:10337000A8E030BFA6E05748FE30511C884200D07C
:1033800002469048426258480179481E81411046E1
:1033900045F705FE5C48C06A80471799286B0842CC
:1033A000FCD00B994E4A234610680842FCD01068A6
:1033B00012998843106058894528824D03D84621C8
:1033C0005981081AA8623EF7AEFFF9498868E8619A
:1033D00008680006FCD538891299884338813F4D2A
:1033E00042480078398A139B19433982404A116850
:1033F00019431160798A109A91437982398A149A13
:1034000011433982798A012804D1102081437982BD
:1034100023462CE0102001437982798A194379826E
:1034200000212A4B19607A8A0F9D2A437A827A8A70
:10343000AA437A825961264A9A620D9ADA623A88D8
:10344000129B1A433A801A9123461A99632903DC86
:103450001A99491C1A91F8E7798A014379821B4825
:103460000C99416138881299884338801B4D388AFD
:10347000119908433882788C244908407884788CE4
:1034800016990843788400201A901A99142903DAAF
:103490001A99491C1A91F8E77989169A1143149AD6
:1034A0009143798179894906FCD57880B88A80066C
:1034B00001D50E98188030BFB88A0D4A106813994C
:1034C0008843106062B6EFE5B00EFD070000F40718
:1034D000204F101AFFFEFFFFF976FD075876FD0713
:1034E00000020040FFFF1F005877FD07B477FD077B
:1034F00010ED00E0E03FFC07787EFD0700FCFFFFD9
:10350000FF03E0FF40420F00B47FFD07FFFE000015
:1035100001207047F8B515460C460146403904298C
:103520000ED8C0467944097949008F44021A1F24F5
:103530002900207802282ED307206870D02032E09E
:10354000072825D0012829D1B74F2C371E49062638
:10355000384632465AF7CEFD002828D0284639464C
:1035600029E02078002816D006200DE020780028D9
:1035700011D0402008E0207800280CD0642003E01F
:103580002078002807D0322028700020012616E07D
:103590002078022804D20420002610E00120F8BD83
:1035A00001206870F42028700020022607E00748F8
:1035B000811C0626284632465AF778FD00202670E0
:1035C000F8BDC046B00EFD0790E1F1074A3DFC078B
:1035D0000020704701207047F8B5174F3888022146
:1035E00088433880B8880007FCD501242002798AF6
:1035F00001437982FEF72FFA08200B2103252A4682
:103600003FF790F82D02042002220C4B29469847E0
:103610000520002631462246084B984707201422F1
:103620002946064CA047062013223146A047788839
:10363000202101437980F8BD100000501124FC07BF
:103640000549884200D000BE04480188044A114060
:103650008918091D018070471111111112000050C5
:10366000FC7F0000402070477047704770B5002114
:10367000CB432E490C461434C5B2FF221F2B09D070
:103680005B1C26881834AE42F7D118245C43091914
:10369000C98A00E011469043084370BD70B500210F
:1036A000CB4322490C461634C5B2FF221F2B09D04A
:1036B0005B1C26881834AE42F7D118245C430919E4
:1036C000898A00E011469043084370BDB0B5174C9D
:1036D000002816D016342025002D25D0FF2020806C
:1036E000204608380021018020460E38016020461F
:1036F00012380160A01E007858F722FC6D1E1834A5
:10370000EAE71025302D0FD0FF20E082A5820020AF
:1037100020606060A060E0602061E8B2214658F758
:1037200098FB6D1C1834EDE7B0BDC046C009FD071D
:1037300070470000F0B58BB01F2109041B4A1368C5
:103740008B4301214C041B191360CB04184A1468E5
:103750009C431460184C194D194E4661194E1A4F6E
:103760001A4BC36106624462124B8362C562184BF6
:103770000760436088041168814311600020282895
:1037800003D001A90854401CF9E7124800684030F2
:1037900001A928225AF78AFC00F022F8FFF786F8E0
:1037A000A8490882FEF788F90BB0F0BD740000400C
:1037B00000020040DD37FC07D937FC078938FC07D9
:1037C0009938FC07AD25FC077D38FC077F38FC07DE
:1037D0003137FC074C76FD0700207047704700002A
:1037E0000B480C4901600C480C4901800C48418889
:1037F00002220A4304218A4342800A4963220A8042
:1038000090498A89094B1A80C98901807047C0464E
:10381000800000404C0554076A280050EBE6000089
:1038200000260050062C0050B00EFD071028005056
:1038300080B51F20000401218A07536F8343480489
:103840001818506710680723984310600A480288C8
:103850000A4302218A430280028808210A43028027
:10386000428C920504D5028B0A4370218A4302835D
:10387000FFF7B6FF80BDC046080000507047400803
:103880007038C0B2704700000248016807220A433E
:10389000026070473000004000207047F0B587B0EC
:1038A00001246002059020020490534D01942846A3
:1038B00008380668002E00D199E0300603D5802034
:1038C000286049F740FAB00703D50220286045F781
:1038D00000FA300707D508202860002045F7B9F91D
:1038E0000420584948720498064204D0049828607D
:1038F000012045F7AEF90598064203D005982860E7
:1039000049F78AFA700603D54020286045F79CF9EC
:10391000F00603D51020286043F7D1FD70070ED4C0
:10392000F00706D02C6058F7D7FD49F70CFA454848
:103930004472B006BBD52020286000BEB7E7042043
:1039400028602F490888A04308802E480078C007C7
:1039500002D13EF7F3FE04E000203EF73FFF3EF7C2
:1039600005FF58F79DFD3EF7A7FE00273548477233
:103970002548008805990842D2D03248807A00282C
:10398000CED1304884721D480088C007C8D11F4876
:10399000069006A80390FEF76FFE1420FEF7A6FE21
:1039A000164A108813490840059C40342043108073
:1039B000FEF750FE02900120FEF798FE03988770F4
:1039C000FEF75AFE0D4908880A4A10402043019C20
:1039D0000880FEF73FFE09490F80029940180599BB
:1039E0002C3188429CD902201649887298E707B08A
:1039F000F0BDC0463FFC000018000040001500501C
:103A000008330050F976FD072A000050010001013B
:103A100080B50C48006A573801D8002006E081B212
:103A2000C90B401800B241103D204843C10700D0E7
:103A30001F3080B20449884200D8084658F75AFD22
:103A400080BDC046B00EFD07E204000002480188B8
:103A500001229143018070470411005010B51946AE
:103A6000FD2002020E48022358F7A2F8902141706F
:103A7000002404704BF74CF8204610BD10B51946D1
:103A80000748084A032358F793F8FF2181709121D2
:103A90004170002404704BF73BF8204610BDC0462F
:103AA0000108000001FD000002E008C8121F08C163
:103AB000002AFAD170477047002001E001C1121FAF
:103AC000002AFBD1704700000D480621018001202B
:103AD000C1030C4A1160BFF34F8FBFF36F8F0221F8
:103AE0001160BFF34F8FBFF36F8F1060BFF34F8F25
:103AF000BFF36F8F052000070021018062B6704779
:103B00000034005080E100E001001D013506FC0793
:103B1000060006086D0FFC0701001E01AD06FC073C
:103B20000900020D9D0DFC0700000508EB0DFC07C8
:103B3000010000015517FC07000000000000000014
:103B40007505FC07211CFC07A905FC07EB05FC0714
:103B5000EB07FC07190BFC071B08FC07BD08FC075B
:103B60002F08FC07250AFC074B15FC07E717FC0785
:103B7000B915FC07EB16FC07750BF10700000000F8
:103B8000B3B5F107000000003B3FF1070000000063
:103B90004538F107000000005791F10700000000D0
:103BA0001584F107000000005764F00700000000D2
:103BB0007985F00700000000C397F00700000000BF
:103BC000B97AF10700000000A145F00700000000ED
:103BD0002D94F00700000000E393F10700000000BF
:103BE0004796F1070000000000000000C83CFC07F9
:103BF000E83FFC070100010001FC0000831DFC07F9
:103C000002FC00009D1DFC0703FC0000B91DFC0721
:103C100005FC0000D51DFC0706FC0000EF1DFC079D
:103C200007FC0000091EFC0708FC0000231EFC071F
:103C300009FC00003D1EFC070AFC00005B1EFC079F
:103C400010FC0000751EFC0739FC0000031FFC0778
:103C50003AFC0000451FFC0711FC0000871FFC0711
:103C600030FC0000C11FFC0731FC0000F11FFC0705
:103C700032FC00002120FC0735FC00004520FC0739
:103C800036FC00009D20FC0737FC0000CF20FC071D
:103C900038FC00004721FC073BFC00009321FC0797
:103CA00012FC0000B71EFC0741FC00004F1DFC0782
:103CB00042FC00002B1DFC0743FC0000091DFC0713
:103CC00005080000DD21FC07C03CFC0701000000E6
:103CD0000004080C0105090D02060A0E03070B0F6C
:103CE00000050A0F01060B0C0207080D0304090E5C
:103CF000504600030003983A6400F401B80BB80B77
:103D0000B80B000CB80B120030003000CD009A0147
:103D10001200240030006400B000180028001200D7
:103D20001200D0070000FFFF000000006400C80080
:103D30000000D0070002444131343538350000001E
:103D400000000000000000000000F401080070CA3C
:103D5000EA80D00706406432050000006046FC0798
:103D600000080000FC12FD0740130000F00EFD07E4
:103D7000000400004826FD07E01A000020030000B0
:103D800000A60E0005000000D20000003200000076
:103D90003C000000010000000100000002000000E3
:103DA0000200000004000000030000000600000004
:103DB00000000000020000000200000000000000FF
:103DC00000000000030000000300000005000000E8
:103DD00005000000060000000A0000000A000000C4
:103DE000C8000000B80B000002000000B80B000083
:103DF000B80B000010000000D4010000E501000035
:103E0000700200006A0000000400000008000000CA
:103E1000200000003537FC073138FC074BD3F00792
:103E2000A9D3F007B1D3F00701D4F00719D4F007F4
:103E30002FD4F00751D4F007E1D7F00781DAF0076B
:103E4000C1D8F007E1D8F00701D9F0073FD9F00752
:103E50004FD9F007FBEEF007D5ECF007F3ECF007D5
:103E60000FEDF00729EDF0073DEDF007BFEDF0078E
:103E7000D7EDF0073FBEF10749C0F10773AFF00778
:103E80001535FC07D535FC071135FC07D135FC0786
:103E9000ED21F0074136FC074129FC07BD29FC074D
:103EA000E929FC07E129FC07FF75F007C974F00751
:103EB0006B75F0077190F1071F40F107CD36FC07D5
:103EC0006536FC076B36FC076936FC076D36FC0768
:103ED0009D36FC0700000000CD1BFC07E11BFC0722
:103EE00057BBF0070986F107D911FC07778FF10757
:103EF0005F8EF1070515FC075366F1077F17F10781
:103F000073F9F0076927FC07D599F0073F0BFC0709
:103F1000A91CFC07350CFC077B0CFC073507FC07CC
:103F2000532EF0075B78F0072577F007F535F0079B
:103F3000000000006D27FC077128FC070D27FC0717
:103F400095D5F0078BD6F007D7D6F0078FB5F107D8
:103F50002FB6F107BFB6F107000000000000000017
:103F60000000000000000000000000000000000051
:103F70000000000000000000000000000000000041
:103F80000000000000000000000000000000000031
:103F90000000000000000000334200424200000028
:103FA00000FD00005D3AFC0701FD00007D3AFC07C2
:103FB0001001FC071001FC0700040000B83AFC07E0
:103FC000E43FFC07E83FFC0778060000B83AFC072E
:103FD000C009FD07C009FD0730050000B83AFC071D
:043FE000800C000051
:0400000507FC0511DE
:00000001FF
