:0200000407FCF7
:10000000A06AFC07B501FC07BD01FC07D501FC0790
:1000100000000000000000000000000000000000E0
:10002000000000000000000000000000ED01FC07DF
:100030000000000000000000EF01FC07F101FC07D8
:10004000AD0CFC07394DFC07A526F007C50FFC07D2
:10005000F10EFC07F301FC07A10CFC07F301FC0700
:10006000F301FC07F301FC07550DFC075F0DFC07CE
:10007000690DFC07730DFC077D0DFC07F301FC0700
:100080005510FC07F301FC07F301FC07F301FC0723
:10009000F301FC07F301FC07F301FC07F301FC0784
:0800A000000000008E070E00B5
:0200000407FCF7
:1001100000F002F800F03EF812A030C808382418A9
:100120002D18AC4201D100F035F80FCCA246AB46F9
:100130000CA730CF2D1B083F3F197C427F1E544433
:100140002D090426F441641EAC4201D300F022F8CC
:100150000126334200D0FB1A3343984754465D468C
:10016000DFE70000BC5F0000DC5F000070470000BC
:100170000023002400250026103A01D378C1FBD8C3
:10018000520700D330C100D50B6070471FB51FBDAB
:1001900010B510BD00F051FD1146FFF7F7FF03F059
:1001A00019F900F069FD03B4FFF7F2FF03BC00F09A
:1001B0006FFD000012488047124800470420714636
:1001C000084203D0EFF309800F490847EFF3088096
:1001D0000D49084704207146084203D0EFF3098017
:1001E0000A490847EFF3088008490847FEE7FEE799
:1001F000FEE7FEE706480749074A084B704700003C
:100200001D57FC071101FC07010FFC07690EFC07D5
:10021000A062FC07A06AFC07A063FC07A063FC07C0
:10022000F8B5074601200023024600901946032036
:1002300049F7E8F80446022180300170FF4DFE487E
:100240002A6843881146FF31F7310B86808848863B
:10025000FB48066A0123DB069E431E430662FF320B
:100260000020FF32383250829082D0821D200882D6
:10027000F4484884F448C882F4480883002048823F
:10028000384649F7FFFB01462868FF30F730C28B3C
:10029000920992010A43C283ED48416800208847D1
:1002A000002C02D0204648F796FC2046F8BDFFB54A
:1002B0008BB0064616980027022821D00D98018899
:1002C0001498814278D37188084640383F2802D874
:1002D000159855F793FC0C98361D0088149A8019D0
:1002E0000E995EF709FF0C980188149808180C996C
:1002F00008800D9801881498081A0D9908805CE10F
:1003000000200E9D079069782C78090221433180E6
:10031000E978AC780902214371808C464039042485
:100320002D1D024603468E46402900D3287861469B
:1003300004291FD0052914D0062918D070463F285B
:100340003DD8159855F75AFC0006000E04D0C14858
:10035000008D0006C00F30D002230120BE4A0027C6
:1003600012E0697800290FD0BC4A17230CE0BC4A80
:100370000F2309E0522802D0D22802D002E0142034
:1003800000E01520B74A1F23002A1AD0984218D23D
:10039000800010580490002813D000200890059089
:1003A00070884038402803D32878052430716D1CAC
:1003B000701D00900498B5E0FEE03027F0E0332790
:1003C000EEE07088042872D10627E9E0522862D056
:1003D0000CDC4B283FD004DC41286AD0422858D19D
:1003E00011E04C2820D0502853D140E0632830D071
:1003F00004DC572818D061284BD19BE06C2864D0CE
:10040000772846D109E00098297801700098641C8B
:10041000401CA4B26D1C009081E00498401C049024
:100420000178089881427AD10098A41C401C4108A8
:100430004900881C009068782A78000210430880E0
:100440000599AD1CA4B2002969D008900020059040
:1004500065E00120FBE71022294600985EF74CFE7C
:10046000009810341030A4B21035009057E02046A8
:1004700040301499039088420BD8402229460098B6
:100480005EF73AFE0098403000900398403584B201
:1004900045E0342743E00822294600985EF72CFE09
:1004A000009808340830A4B20835009037E068E0BE
:1004B000FFE70622294600985EF71EFE0098A41D5D
:1004C000801DA4B2AD1D009029E01498001B80B2DD
:1004D00003903088001B001D81B201200790049812
:1004E000401C04900098401C400840000090049874
:1004F000007857281CD04228CBD100980170090AF7
:10050000417000982946801C0090039A5EF7F4FD24
:1005100003980399201884B200984018009004981A
:10052000401C0490007800281ED0002F17D01BE03C
:100530004908E2E71498001B81B200980391401C1F
:1005400040084000009001200A4607902946009884
:100550005EF7D2FD0399601884B20098DDE70D992B
:100560000988A14200D331E70D980088A04208D342
:1005700004990978002904D10799002903D1A042E0
:1005800001D034270CE00D99001B08800C980188DD
:100590000098801B001F08180C99002F08800CD0B1
:1005A0007088042809D0062807D04038402804D392
:1005B0000E984079707100E0342738460FB0F0BDD6
:1005C000FFB581B01F4616460C4610465CF758FC36
:1005D00000257F2802D02189062909D03B463246D2
:1005E0002146019855F79DFE0546284605B0F0BD09
:1005F000C00601D50225F8E720780028F5D1300A99
:10060000A11D42F726F8F0E7F1B598B0189842F727
:100610001EFA0446189805210079134A4006C00FB7
:10062000099068460184618B08460A38904276D268
:10063000E08A062873D319E030BCFC074CB9FC07EC
:10064000C0000040108000002941000076710000C9
:1006500058BFFC0748BEFC073803F2074003F20707
:100660009C03F207D803F207770C00001922D2018D
:10067000904254D8228BFF23F5339A424FD8521C14
:100680009300D2184243521C0A23521059438A4203
:1006900045DC217F00290CD1617F002909D1A17F90
:1006A000002906D1E17F002903D12021095DC90677
:1006B00035D0274620377978C906C90E491F0C293D
:1006C0002DD2A18A81422AD8E17C002927D0421E5E
:1006D000082A01D9082000E0401E81421FD8684640
:1006E00046F776FA00281AD1FE4D062228622146E6
:1006F0000AA85EF701FDA8792E46803E00287DD02D
:100700006079800901280BD00AA809994CF72FFDC0
:10071000010003D03820405C002870D09BE008E145
:10072000F06A807A012808D0042806D00AA84CF77D
:100730008BFD286200284ED054E0686A06220AA980
:1007400032305EF7FDFC002806D00AA84CF77CFD8D
:100750002862002802D012E0686AF9E700210AA89E
:100760004CF788FD2862F16A897A012905D18B0747
:100770001A6849068A430A431A60002811D0F16AB0
:10078000286A0622253010315EF7DAFC002808D1ED
:10079000286AF16A2030C07AC97B884201D1286A70
:1007A0001EE0D148D1490088C96880B20622504372
:1007B000081842F751F9014614A8062202305EF7E4
:1007C0009BFC13AA00213C2042F713FC0121B06DD1
:1007D00047F73AFEA9E011A90AA84CF74BFD286299
:1007E000002838D00146253106220FA85EF784FC88
:1007F000286A08AA2030C17A0FA801E041E024E06D
:100800004CF798FB002812D0286A2030C07A0028C4
:1008100009D16846B649008C4BF7FFFA08AA0121B6
:10082000B3484CF787FB68460AA9008C0AE008AA7F
:10083000012111A84CF77EFB00280CD0296A6846DC
:10084000008C32314BF7FFFA05E00A18527D002A7E
:1008500008D010286DDBF06A407A022806D0032801
:1008600004D00EE0401C1028EFDBF4E76846008C53
:10087000052806D308AA0AA809994CF75BFB0028AB
:1008800057D00022694620464CF7FDFB002850D186
:10089000F06A407A02280BD0032809D0002368466A
:1008A00002880AA809994CF70FFC002802D02FE013
:1008B0000123F4E7E18A68460181218B4181618B44
:1008C0008181787806224109684681757878C10669
:1008D000C90E6846417521460E305EF70DFC18982A
:1008E00000794006C10F684601750388214602A8B9
:1008F000B26D47F74FF90146B06502A842F7C7FB52
:100900000020B065214668461C31008846F7B3F9DF
:1009100049F732FA734C2034207A002805D00021A0
:1009200009205CF7F0FB00202072002108465CF7EC
:1009300092FA19B0F0BDF8B56E4C064685000F4628
:1009400060594C21095C24290ED140691022791D7F
:100950002E305EF7D1FB615925204031087300220B
:100960001146304654F79DFA60594C21095C0C2918
:100970001FD140691022791D2E305EF7BDFB6059F2
:100980005F214069095C09072DD401462E311022F0
:100990001E305EF7D5FB00280CD06059092140308D
:1009A0000173304654F79AFF01460022304653F750
:1009B000F7FDF8BD0421684601706A4605213046FE
:1009C00053F798FF6846017860200143684601703C
:1009D000304654F783FF01466846027801233046CB
:1009E00053F7F3FEF8BD304654F778FF012809D0DD
:1009F000605907214030017300221146304654F7F8
:100A000050FAF8BD615900204969C03188716059B8
:100A10000421426930461E3253F76CFF6059416928
:100A20004031897F002907D01A214030017300210D
:100A3000304654F7C0FAF8BD1B21403001733046F0
:100A400054F70EFBF8BDF8B52A4C05468600A059B0
:100A50004C22125C192A11D140224D30491D5EF7FB
:100A60004BFBA059402224494D305EF769FB00281A
:100A700005D02149284620395BF7CDFCF8BD0B2174
:100A8000684601706A460521284653F733FF6846D9
:100A900001786020014368460170284654F71EFF24
:100AA0000146684602780123284653F78EFEF8BDBA
:100AB000FFB581B003980C46060A00255CF7E0F903
:100AC000002827D0132825D0142823D00B48B7009E
:100AD000C0592030407BC00637D503985CF7D0F969
:100AE00015280DE030BCFC0768B9FC0760BBFC07AB
:100AF00050F5F1073CBEFC07FCBDFC0778BBFC07CA
:100B00000CD0A07941F796FF304647F731F803281B
:100B100006D015E0A07941F78DFF1FE002251DE00A
:100B20003948C0592030407B400704D53D2130462C
:100B300042F77EFC04E03D220021304642F787FC6C
:100B40003D21304646F75CF808E0204610382F4932
:100B50000181468120464EF745FD0125284645E5A1
:100B60002B485222006864308188C37E5143294A51
:100B700012688918FF225F32525AFF31120AD21AC4
:100B800001310B8CD2B2DB0B09D00B8C5B045B0CFC
:100B90000B84002A03D180881F4A01211154704719
:100BA000FFB51746140A81B0174A0298A1005158A0
:100BB00040780026184D002907D0295D002905D06E
:100BC000002803D1204643F797FE2E553A46049B52
:100BD0000299019844F721FE08E510B518220F4943
:100BE0000F485EF789FA0D4B0E480C3B0ECB0EC03A
:100BF0000B480D49A03001600C49416008490C4880
:100C00002039086010BD704778BBFC07060800005B
:100C100084BBFC074CB9FC07A06AFC07B057FC0773
:100C200020000840C000FC070459F007490C00BF31
:100C300007001000704770477047754600F024F8B1
:100C4000AE46050069465346C008C000854618B048
:100C500020B5FFF7CFFA60BCB64600260027C0C516
:100C6000C0C5C0C5C0C5C0C5C0C5C0C5C0C5403D64
:100C7000490849008D46704710B50446C046C04635
:100C80002046FFF790FA10BD004870476861FC07E6
:100C900001491820ABBEFEE72600020070470000A5
:100CA00001480121018070470E150050B0B50520A4
:100CB00000070188302211430180038803210B4380
:100CC0000380204B1C886407FCD403889343038073
:100CD00003888B430380DD4CE38B4380238C9D1E74
:100CE000194B5D8007251D80058815430580058803
:100CF0000D4305801D886D07FCD403889343038052
:100D000002888A4302804289920702D042898A433C
:100D10004281018980220A430281018A042291438F
:100D20000182818A8907FCD541F7FBFAA06B07494C
:100D3000086007480168490700D500BE01684907F7
:100D4000FCD5B0BD0833005000160050080200402A
:100D50001000004080B50A2000F064F880BD80B526
:100D60000B2000F05FF880BD80B50C2000F05AF831
:100D700080BD80B50D2000F055F880BD80B50E20F7
:100D800000F050F880BD0000FEB500930292019182
:100D9000064601240021204632465EF7F1F9074657
:100DA0000D461E4A5068084011683940014300D181
:100DB00000BE114B0098002809D0506828401168E7
:100DC0003940014300D100BEB4401C8005E03046EC
:100DD0001C4600F013F82346104A5068284011685A
:100DE0003940014300D100BE0299019801437000CF
:100DF00018188180FEBDC0460230005010B5044670
:100E0000064908684968224662F719FBC00700D105
:100E100000BE0120A0400249088010BDA076FC075A
:100E200004300050F0B5C0B203460A3B01210A4627
:100E30009A4093B2C34D5C19661C5E40094B1C88F6
:100E400000272E4203D07F1C7608B6B2F9E7944300
:100E5000BAB20D46954025431D808140514801603E
:100E6000F0BDC0460E140050F8B5044601273E02FE
:100E700005200507688DC00506D51B2004F0F8F98C
:100E80004A48018839430180803628884001304033
:100E9000698A474A0A4002436A822168134801600E
:100EA00061684160A1688160E168C1602169016198
:100EB00061694161A1698161E169C16104623E4981
:100EC0000A6842624A6882628A68C2624A69026348
:100ED000CA68426309698163334808210180A88A8E
:100EE000C00600D4FEE700BEF8BDC0460090FC0777
:100EF000024800882B481021016070472C130050D5
:100F0000F8B5044605200507288A042101432982F3
:100F1000288940210143298122480127076022486E
:100F2000082101803E02688DC00506D51B2004F013
:100F30009FF91E4801883943018080362888400186
:100F40003040698A1A4A0A4002436A822168194875
:100F5000016061684160A1688160E168C1602169E8
:100F6000016161694161A1698161E169C1610462F5
:100F700011490A6842624A6882628A68C2624A69A2
:100F80000263CA68426309698163A88AC00600D403
:100F9000FEE700BE688A094908404018001D6882C3
:100FA000F8BDC04680E200E00033005080000050F1
:100FB0007FFE00005090FC0728ED00E0FC7F000061
:100FC0007047000070B5204C974D214EA1880F202E
:100FD0000840022806D004281BD00C281CD0012869
:100FE000F4D12FE0E86A298BAA8A914221D2A28803
:100FF000C0231340C02B03D13288920703D4E5E706
:10100000228A9206E2D54A1C2A83415C221F118063
:10101000E9E704F09FF9D9E704F09CF92088012161
:1010200088432080686B0028D0D0002004F080F92D
:10103000CCE72088022188432080208880218843B3
:101040002080C3E770BDC046041100502876FC071D
:101050007C11005005210807028830239A43028042
:10106000028803239A430280828812050DD5184A0C
:1010700013880B40052B08D11088042101431180EF
:10108000108801218843108070478188C90606D5E1
:1010900010498A88D20702D00A88120610D48088A4
:1010A000C0060CD50B488188890708D50188C90579
:1010B00005D5022181800188074A0A4002807047D5
:1010C0000120888008888022904308807047C046AD
:1010D0000002005000010050FFFE0000F8B5164964
:1010E000164A53881B0706D412880F46520606D4A8
:1010F0004A37483105E00F4650374E3101E0463758
:1011000044310F4E70430024095F8D1929465DF765
:1011100079FF0090385F704329465DF789FF009999
:10112000091AB142084600D33046064A914200D817
:1011300004462046F8BDC0465072FC07001500501A
:10114000FFFF0000FEFF010070B5D948092104240B
:10115000182322465BF74EFC05461B202870FD260F
:10116000304662F799FA0021A982E96029616C6032
:101170006E80687028465BF758FC70BD1FB514463A
:10118000002202920192069A00921A46234662F7C2
:10119000AFF804B010BD0000F8B52348C37B234965
:1011A000DDB20C2214466C430E5DFF2E0BD0012DD8
:1011B00002D10223C373F3E75A1CC27308194068B3
:1011C00080470020F8BD847B194FE3B215465D438C
:1011D0007E5DFF2E0FD0012B0AD03946134F3B788E
:1011E000B34202D00C37FF2BF9D1FF2B0F4617D09B
:1011F000641C8473E9E7017C0E4ACCB21C23634370
:10120000D45CFF2C07D0491C0174D318DB68002B79
:10121000F3D09847D5E700210174C1810120F8BDC2
:10122000611C81737819CAE72876FC070061FC0706
:10123000485DFC07545AFC0770B59D4809210424F9
:101240000A2322465BF7D6FB05461B20287014268E
:10125000304662F721FAFF21743129816C606E807B
:10126000687028465BF7E1FB70BDC0461FB51446A9
:1012700001220292044A0192069A00921A462346DB
:1012800062F736F804B010BD1459FC0770B5184D5C
:101290002C68002C25D11748092104222C235BF748
:1012A000A9FB0446286017202084134820800026CC
:1012B000668020460A3011215DF737FF6684E68399
:1012C000A6832020E0767E210C48415AFB2900D3DA
:1012D000FB21E1848021405A0949884200D3084615
:1012E000208520465BF7A1FB0020286070BDC0462A
:1012F000FC72FC07040D0000030A0000B0BBFC07F1
:101300004808000070B5194D2868002824D11848F5
:101310000921042252235BF76DFB04462860002656
:10132000867219200001E080A0800D20208010220C
:10133000E272FF200830208120460C300DA15DF7BD
:10134000DBFE2B20265420462B302C340E210E4B56
:10135000224662F7DFF828685BF767FB0020286009
:10136000042002215BF777FD70BDC046F872FC07D0
:101370000D0D00000319C10305020A181218051605
:101380000A180001000000006460FC0710B5044664
:1013900000F0CCFD5BF749FBA000024900220A5097
:1013A00010BDC0469C73FC07F8B500920D46810045
:1013B000104A56585418002E0AD101020A310E481C
:1013C00004271E233A465BF715FB0646077020608C
:1013D000B71C102138465DF7A8FE38462946009A0A
:1013E0005DF78AFE0120707030465BF71EFB00201F
:1013F0002060F8BD1C73FC07140E0000B0B5024657
:1014000094483830002423460A2B0BD00568002D61
:1014100002D0001D5B1CF7E701605C1CE0B21146C6
:1014200000F0B4FAE0B2B0BD1FB514460E2202922D
:10143000044A0192069A00921A46234661F758FF21
:1014400004B010BD1C59FC0770B5194809210425CA
:1014500032232A465BF7CEFA044685802620608038
:101460001B21217062F718F9012121720022E2800C
:1014700060700320E072A07A10230343A37202205D
:10148000C0430C4B002807D025183126EE731E7878
:101490002E75401C0C33F5E76275E27322752274D9
:1014A00008022083E08220465BF7BFFA70BDC04689
:1014B0001B0D0000FC5CFC0710B50446262041F71C
:1014C00082F9014613204002042206235BF792FAB8
:1014D000C2494C7107218901418004705BF7A5FA6C
:1014E00010BDC04680B5262041F76DF90146114870
:1014F000042210235BF77EFA00281AD001218171A3
:10150000B6494A79002343800270082282800A6A21
:10151000496AC172C2710B0E83730B0C4373090AC3
:101520000173110E8172110C4172110A01725BF785
:101530007CFA80BD022600001FB5144607220292E5
:10154000044A0192069A00921A46234661F7D0FE99
:1015500004B010BDA459FC07B0B50C463949884207
:1015600020D0394A90422ED0384988423FD1207845
:10157000401E092858D88000364909188A6B384B14
:101580009A4255D03448824257D12F48042108232B
:101590000A465BF72FFA21780170616841605BF7BA
:1015A00044FA4AE06268002A01D100BE6268284815
:1015B000824201D300BE626820782349401804218A
:1015C0005BF757FD39E02078411ECAB2092A2DD8B1
:1015D0008900204A5218936B1F4DAB422DD13832EF
:1015E0001E4B59581160616800F0D0F925E0531C7A
:1015F0000121984224D30A32904221D8C01EC0B2A1
:10160000411E8A0013498B18996B002915D0124C82
:10161000A14212D0124CA1420FD038330F4C0025FA
:10162000A5501D60884708E000BE06E000BE04E04B
:1016300038310A4A002313500B60049800210170CE
:101640000846B0BD010400000304000002040000CD
:10165000FDFF3F00A076FC07E352FC070077FC0784
:10166000E152FC07B0B50C460025202D04D041F70F
:1016700046F960556D1CF8E70020B0BD10B5044672
:101680000548064970225DF737FD0548001B0549EE
:1016900008801430488010BD70A0FC07DC59FC079E
:1016A000B8A0FFFF78A0FC0710B507480188074ADB
:1016B0001368114C2340591811604088516821402B
:1016C0000818506010BDC046183000408CA0FC07C0
:1016D00010B507480188074A1368074C234059187A
:1016E00011604088516821400818506010BDC04604
:1016F0003830004098A0FC070000FFFFFEB503F063
:101700002DFD334F0024BC843888202102910843EA
:101710003880B8881C2630436025A843B880AB20A9
:1017200003F08AFD03F028FD00281AD103F062FDC2
:10173000002816D103F03CFD019003F01DFD0028A8
:101740000FD1B8883C21014340208143B9808320D8
:101750000199014001200002081803F06DFD03F01B
:1017600035FD03F009FD002800D0FEBDB8883043E8
:10177000A843B88003F0F2FC9F20164DA8472046EE
:10178000A84701902046A84706462046A847BC84A3
:101790003988029A1143398001990906090A3206EB
:1017A000120C5118C0B20818DFD0E2430A490B1DD1
:1017B0000A2ADAD0521C1C680C33A042F8D10C2043
:1017C00050430818654928311CC81CC1FEBDC046DD
:1017D00000120050A950FC07C857FC07C861FC075D
:1017E000F0B587B00690FFF789FF0F20470301206F
:1017F00041070591804C824E0497C00742D003F008
:10180000BBFC0699002924D0002800D09FE003F0FB
:10181000F1FC002800D09AE04F4A10887C21014357
:10182000118038460599084303F006FD002503F0B2
:10183000BFFCC00721D020880006F8D5306800041E
:10184000F5D44848854200D181E06D1C5BF7D5FD99
:10185000EDE700287BD103F0CDFC002877D13E4A8C
:1018600010887C210143118038460599084303F014
:10187000E3FC03F0ABFC002869D1012000033F1812
:101880000020BAE7344908881C22039210436022E2
:101890000292904308803148006B31494418A120DE
:1018A0008000844200D304460498FF300690012053
:1018B000059005020027204601940095A74246D2D4
:1018C00004994118069A91422E4600D8064603F024
:1018D00053FC00283BD103F08DFC002837D11E4C6F
:1018E00020887C210143218003F038FC05984106C3
:1018F0000498084303F0D8FB208803990843029911
:1019000088432080B5B2FF2D01D90598050289488A
:10191000C419280405D0207803F0C6FB6D1E641C92
:10192000F7E700200C490884081F018820220A4399
:10193000028003F04BFC0028019C009D07D1069A11
:101940005119F719E01B521C04920691B6E703F0F7
:101950001DFC07B0F0BDC04604120050C861FC0772
:101960000020FEFF80841E0007481E214180018860
:1019700003220A430280018804220A4302809B4812
:10198000012101707047C0460016005070B50C462A
:10199000054619490888000618480ED5184A1268E5
:1019A00012040AD4174A1288D20706D14019801CA3
:1019B000042122465BF75DFB70BDEFF3108301222B
:1019C00082F310880988090603D40F490E8816434C
:1019D0000E80002B02D082F3108802E0002181F3F8
:1019E0001088042108230A465BF704F84460057058
:1019F0005BF71BF870BDC0460800005001040000F2
:101A00003000004054BAFC07083300507047000013
:101A1000FD2801D00020704700487047545AFC0749
:101A20007047704710B5044640793F280FD840F7FB
:101A300066FF2070010EE170010CA170000A607059
:101A400040F75DFF2071000AC0210143617110BDA4
:101A5000F8B50446800065490F18BD6D5837002D54
:101A600020D121020A31734804221E235AF7C2FFF3
:101A700083214900018038607A256543A9484419CB
:101A80005134102620463146324661F769FCA54A9A
:101A9000505D0821014351553D68A81C214632463E
:101AA0005DF72AFB28465AF7C0FF00203860F8BDD2
:101AB000F8B59D4A323200260446052E0CD00D782A
:101AC0004F783F027D19177853781B02DB19AB4220
:101AD0000ED07A32761CF0E7204600F027FA00217B
:101AE00001702046FFF752FC204661F749FDF8BD22
:101AF0007A2250438B490D1856438B488119203167
:101B000028465DF7F9FA7820295C012620463246FE
:101B100061F7EAFC204600F009FA0670297F41745B
:101B2000A91C401C10225DF7E7FA2046FFF72EFCA7
:101B3000F8BDC046A073FC078D49C98E018070476F
:101B400080B58B490A7D0270401C15315DF7D4FACF
:101B500080BDC0467D21C18000218180102141804F
:101B60000821018070470000FEB57A2402904443AA
:101B70006C4807194E783E773D46143508212846B3
:101B80000A4661F7EDFB38461C300190102E04D850
:101B9000B81C1022314661F7E3FB40F7B0FE614B01
:101BA000195D01220A431A557882029E304601F0DF
:101BB000F7FB019909780177798A418269882A8837
:101BC000EB88AC88048343838282C182B91C801C69
:101BD00010225DF791FA304601F0E2FB5AF725FF3B
:101BE000B000024908180021C165FEBD2876FC0737
:101BF00070B581000E4A54585518002C11D10102BD
:101C00000A310C4804221E235AF7F4FE044601262A
:101C100006702860801C084907225DF76DFA26715E
:101C2000667020465AF701FF0020286070BDC0464C
:101C30001873FC07140E00001861FC07F0B587B09C
:101C40007A225043F94909187820085CC00766D009
:101C5000019208467130029008463A300490324CA6
:101C600027469137FF200390002601200590324639
:101C7000052E24D0A0198078AA280ED106922546D8
:101C80000C4608783946713909780140480709D56A
:101C9000394637391022049807E0D00700D103965F
:101CA000059A09E00722029839465DF749FA0028AB
:101CB00021462C46069A1AD07A37761CD8E7039F1D
:101CC000F8B2FF2816D10E4620461030E2680027F1
:101CD000012105290DD008C893420D4600D33D4689
:101CE000934200D31346491C1A462F46F1E7374664
:101CF00000E0314679200F54A068421CA260FBB27C
:101D00009A00A218D060E018AA228270019A534368
:101D1000E01820305DF7F0F90598FFF761FD07B096
:101D2000F0BDC0462073FC07A073FC0780B561F7C7
:101D3000C7FB002801D0FFF7E5FA80BD10B50C46BF
:101D4000017801290BD000290ED14288F34B1A7576
:101D50001533011DD2B218465DF7CEF902E0408876
:101D6000EE49C886002000E04820207010BDC04623
:101D7000A076FC07E0B54978022906D0012908D0F1
:101D800000290CD107A1102207E0054900916946FE
:101D900002E00349019101A90422FFF705FB8CBD74
:101DA00040E20100000102030405060708090A0BCE
:101DB0000C0D0E0F002088804880012008707047AD
:101DC00080B55DF787F980BD80B55DF78CF980BD82
:101DD00081B055480021016000910098FF2803DC84
:101DE0000098401C0090F8E74D4800781F214901F9
:101DF0004A4A13688B43C006800DC018106001B0BA
:101E00007047C04681B04748022101700020009011
:101E100000980B2802DA0098401CF8E701B07047E0
:101E2000F8B51F460C460878082812D80B25002163
:101E300000911BA678440079400087441B041004DD
:101E400007071316190007251B4E13E00F25194E1F
:101E500010E000BE00260120009035460AE00A2569
:101E600016A607E008251AA604E006250FA601E03D
:101E7000072515A6AB1C194839465AF7BBFD07467E
:101E8000207838707D700098002804D1B81C314645
:101E90002A465DF731F938465AF7C7FD0020F8BDEC
:101EA0004469616C6F672053656D6900FFEEDDCC9E
:101EB000BBAA00002C60FC073C60FC07312E302ED2
:101EC000302E302D4C45000001D20080050001006D
:101ED000123456FFFE9ABCDE00000000031400001E
:101EE00081B00E4801688905C90E0D4A11701F2185
:101EF000490102688A4302600A48012101700A48C8
:101F0000016803220A430260002000900098FF2825
:101F100002DC0098401CF8E701B070474C1200400A
:101F20006661FC0706100040AC10004010B582004E
:101F3000074B9958002909D19C1801020A3105481C
:101F4000042212235AF756FD01462060084610BDB0
:101F50009C73FC07180E000070B50C78A51E052DAB
:101F600027D81C0A7D442D796D00AF44023122250B
:101F7000414F7A206043794A15188878782168544F
:101F8000C0070CD071350C2060439C490E183146B7
:101F90000D31062228465DF7AFF8307BA871204648
:101FA000FFF74CFE0C206043944908180021C174CF
:101FB00039E003F0F1FA36E07A256543674C6019A1
:101FC0003A30891C17225DF797F8605D042128E0FC
:101FD0007A206043614908187821002242540C207D
:101FE000604386490818C274204661F7C9FA1AE0AE
:101FF0007A256543594E70196130891C1024224698
:102000005DF77AF8705D204370550CE07A256543E2
:10201000524C60191E30891C1C225DF76DF8605D02
:10202000022101436155002070BDC0462073FC07AA
:1020300080B50A78072A23D8180A920001A39A5873
:102040009746C0466520FC078120FC078120FC07DD
:102050008120FC078520FC079520FC078B20FC07CE
:102060009120FC077A2141433C4A002353540C2120
:102070004143624A51180122CA74FFF7B9FD09E0D1
:1020800000BE07E0FFF776FE04E0FFF7E1FC01E0A9
:10209000FFF76AFD002080BD10B50C78092C05D033
:1020A0004C78002C00D000BE03F076FA002010BD62
:1020B000F8B51D4610460C465AF7E2FE022829D113
:1020C0002D0A00D000BE0C2068434C490F18BD7289
:1020D000FF2D1AD00126FE72042003215AF7BBFE01
:1020E00020883881607A38730D3721460A310622FC
:1020F00038465DF701F87A206843184908187821B6
:10210000415C2846324661F7EFF92846214603F044
:102110008FF900E000BE0020F8BDC046A076FC07A5
:1021200010B51C4610465AF7ABFE032809D1200A09
:102130000C21414331484018FF21418103F0E0F96F
:1021400000E000BE002010BD180A7A224243034876
:102150008018097878228154002070472073FC078A
:1021600080B5180AFFF7A4FC002080BDF0B589B047
:102170001D461446087802281DD001282BD00028BF
:1021800036D11E490E7D153101AF384632465CF717
:10219000B3FF33460A331848294622465AF72AFC29
:1021A0000446468000202070201D394632465CF7E8
:1021B000A3FF20461AE010480A23294622465AF770
:1021C00019FC7D2101810021C1801021818008211D
:1021D0004180022109E00948C68E07480A232946A2
:1021E00022465AF707FC4680012101705AF71DFC70
:1021F000002009B0F0BDC0460B0E0000A076FC0721
:1022000000207047B0B50C78641E162C17D8C04655
:102210007C4424796400A7440D1215121212121284
:102220001212120B1A0B0B120B0B0B1212120B00C9
:102230000020B0BD487800280DD000BEF8E703F0BC
:10224000ABF9F5E74878002808D000BEF0E74878F9
:1022500003F0E8F8ECE7FFF719F8E9E7FFF766FDA8
:10226000E6E7000010B510465AF70AFE002801D034
:1022700000BE09E0054809210422012423465AF73B
:10228000B9FB04705AF7D1FB002010BD020D00000D
:102290000020704700207047F0B585B01F461646F5
:1022A0000D4626205EF7A4FF298802AA009204AA00
:1022B00003AB00F0A1FB04460E4806233946324624
:1022C0005AF798FB29880180002C0DD103990C390D
:1022D000C9B20A2905D808A2545C4900094A515AD2
:1022E00001E003240021418004715AF79EFB002085
:1022F00005B0F0BD180C000000000300030000034F
:10230000000300004C58FC0770B5087812281CD157
:102310001E4614460D4626205EF76AFF360A3146F1
:102320005EF784FF01460A48022322465AF762FB01
:102330000670697841705AF778FB20465AF7A0FD7D
:10234000FE21014020465AF786FD002070BDC046A0
:1023500003260000F0B589B01E4614460F4610460D
:102360005AF78EFD0546800717D40494039605A8F6
:102370000026068026205EF73BFF04460297398838
:1023800006A8009008AA07AB204600F035FB0028FD
:1023900006D0074632E0002000E0022009B0F0BD80
:1023A00007A80078C01F80270F2827D80399090A9B
:1023B0000223800001A210581A4687462724FC07F2
:1023C000FD23FC07FD23FC072B24FC07FD23FC0752
:1023D0007B24FC074124FC07FD23FC075B24FC074E
:1023E000FD23FC075F24FC076324FC07FD23FC0797
:1023F0007924FC07FD23FC07C724FC07B31D3B48D9
:102400000399049A5AF7F6FA044602980088208045
:1024100066802771601D05A932465CF76DFE204677
:102420005AF703FBB7E7012227E008A800780C2140
:1024300041436018C07B05A9088000270126DDE71D
:1024400008A800780C224243A01849004018C08810
:102450000121014005A8018045E003220DE004228E
:102460000BE008A800780C224243A018490040184D
:10247000C0888007C00F34E0002201922746204622
:102480000C4603935EF7D2FE0146F9480823049AEE
:102490005AF7B0FA00218180012646700470019934
:1024A000C17008998170069981715AF7BEFAFE775A
:1024B000BC7702980088388403980543049829461D
:1024C0005AF7C9FC67E708A800780C224243A01815
:1024D00049004018C08806A90978C8404021014039
:1024E000880905A908800027022687E7140C000048
:1024F000F0B589B0039316460C46FD205EF778FED2
:10250000029008A900250D7020885FF79DFF0746FF
:102510006088002800D000BE002F75D10196039876
:10252000000A0090FD20FFF773FA014608A8007822
:10253000142242434B689E183679022E25D19A58B0
:102540001288384B9A4220D10020059004902088B0
:102550005FF715FF002800D100BE07A9002204ABD9
:102560004EF702FD0120400207990140480A21462A
:102570005FF7F0FEC7B2002F019E26D1E28808A8BF
:102580000178009860F7C1F81FE08E69002E2F4691
:1025900004D0A2886188A31DB0470746059504951D
:1025A000208804A94EF75BFA002F019E0DD1082068
:1025B0000499085E002807D46288A1882088A31D9A
:1025C0004EF7B7FA074600E00027002F1CD102980B
:1025D000009D29465EF72AFE0146A088801D83B231
:1025E000114832465AF706FA0746801DA288A11DF7
:1025F0005CF782FD08A800787880A088B8803D70DC
:1026000038465AF712FA00279A48042303993246AB
:102610005AF7F0F98770218801805AF706FA0020EE
:1026200009B0F0BD022900000AFD0000F0B58DB030
:102630001D4616460C4610465AF722FC810723D445
:10264000089026205EF7D4FD074621880AA800904E
:102650000CAA0BAB384600F0CFF9024600200990D7
:10266000F8772B0ABB7720883884002A29460DD0BA
:1026700080480423154632465AF7BCF985702188F4
:1026800001805AF7D2F9CAE00220C9E02546069730
:1026900007960BA80678701F8027112800D9B0E094
:1026A000784400794000874454ACACACAC6BAC08C7
:1026B00037AC08AC0837AC08AC37069819461F464B
:1026C0005EF7B4FD0146A888083083B26848079ACF
:1026D0005AF790F904460220059060702770A88888
:1026E000A0800A98A0710C98A070E01DAA88A91D6E
:1026F0005CF702FD0C3E082E5BD8C0467E4436795E
:102700007600B74404565658565A56565C00022571
:10271000E570079E069F57E01C460591A879E97968
:102720000902081804900AA8007801900CA8007803
:10273000029026205EF75CFD03900D2E49D0122EEC
:1027400049D0162E0599264649D14020019A90403D
:1027500047E00591069819461C465EF767FD01465D
:102760004348401D0323079A5AF744F904700C9913
:102770004170A97981705AF758F90027059940E00E
:10278000069F3846194605935EF750FD01463848C6
:10279000801C0423079E32465AF72CF90446032175
:1027A0004170059820700C98A070A8790D46E070D3
:1027B0000AE000BE05E0032002E0042000E0002063
:1027C000E070079E069F059D20465AF72EF9FD777B
:1027D0001FE0012000E002200599264601E000BE2E
:1027E0000020049A92B2012A1CD0002A09D10C219F
:1027F000029A5143039F791872008918CA8882434C
:1028000019E00698C07F0028079E2C463A4600D162
:102810002EE702200899014330465AF71CFB09981D
:102820000DB0F0BD0C21029A5143039F791872003C
:102830008918CA880243CA80384631465EF7F6FCDA
:102840000446384631465EF7E9FC02460848001D5A
:10285000062321465AF7CEF806707100C919891D62
:102860000222062A87D00B8883520C31921CF8E78B
:1028700004260000160C00000269032900D300BEE4
:102880002320105C49008918891D002804D00022EB
:102890000A80401E0C31F8E77047704780B5016927
:1028A0000022026108465AF712F880BDF8B500937D
:1028B00016460C4626205EF79BFC0746002800D1F2
:1028C00000BE207803280DD94027324600991648CB
:1028D00002235AF78FF84770217801705AF7A5F84C
:1028E0000020F8BD52F7EEFF0E4988420FD023209A
:1028F000385C4000B91D00273A469042E5D0A31845
:102900005B8825786D004B530C31921CF5E72078DD
:1029100003283246009902D87620C743D7E74027DC
:10292000D5E7C046FFFF000001260000F0B50024F7
:10293000162A5FD82325455D8D425BD9132A05D31E
:102940000C254D4345196D7B9D4253D905460C35E9
:10295000848B0E46002E04D02F78E419761E0C3599
:10296000F8E7122A0AD8A3180C244C4300198088CF
:10297000C10722D1102A1DD35B1F1EE00C254D4339
:102980004119887B2018091D0024A34209D00D8815
:10299000E5406D0601D5042500E003252818641CD8
:1029A000F3E7162A03D10988D940490621D414181F
:1029B000133C1FE00A2A00D900230F2A01D81C4625
:1029C00002E08107CC171C40410706D40B2A01D333
:1029D000A41E02E0082A00D9002400070AD4092A0C
:1029E00001D3A41E06E0022A01D3641E02E0012ADC
:1029F00000D10024A0B2F0BDFEB5848B1725009352
:102A00001D7005460C35019023300023089E029668
:102A10002646137007788024BB4279D2B7B28F4222
:102A200076D82C78E4190C355B1C8C42F0D9002444
:102A30000298047013780C204343019DEB189D7B92
:102A4000ED198D4205D98F421CD1002400980470E5
:102A50005EE0019F029B1C7013784343FE18737B5A
:102A60009C422BD2ABB2DD1CABB28B4229D2361DBD
:102A70003688E640760603D55D1CABB28B4232D079
:102A8000641CE7E7181D0088020726D4F21D93B2E4
:102A90008B4236D2430703D5921C93B28B4239D274
:102AA000C30703D0521D93B28B4237D2800703D5A0
:102AB000D01C82B28A4235D200BE28E0009800784D
:102AC00005E0C84328181521081A00990870C0B2FB
:102AD000002417281CD100BE1AE0721C92B28A4250
:102AE00003D1012011E016200FE03246083293B2E4
:102AF0008B4206D20936B2B28A423246CAD1082087
:102B000003E0C84310180721081A00990870002430
:102B10002046FEBDC84310180A21F5E7C843101827
:102B20000F21F1E7C94340181221EDE7F0B59FB03E
:102B30000A930492059109902425012128461491B5
:102B400059F74AFE0027199718971B971C971D974E
:102B50001E97119029465CF7E8FA24980C900078AB
:102B6000002802D003280E9701D381210E910C99E1
:102B7000091D069175218B003A460B93D5B214249A
:102B8000C1B28D420E9900D3F0E0002900D0EDE0F3
:102B9000089223466B430C99CE18F178052900D989
:102BA000EFE0159307970C206843119A141861738E
:102BB000B0783F210140A18003210B980F9159F774
:102BC0000BFE0746A80018A90F501696ED001BAE85
:102BD000FD2012907051207BC01D2073E4223846E6
:102BE000CF495CF789FA13957519169926460C3664
:102BF0000E94207B8A78130701D4129C07E0801C76
:102C000030700B9C2B342C6016994B8ABB82530777
:102C100005D5801C30700F994B021C432C603B463D
:102C20009433D1070DD0401D30701F21C9026118A7
:102C30002960D10605D519681295B84D2943129D12
:102C4000196091070DD5C01C3070072109042C466E
:102C50002D680D432560910603D5D96BAF4A11430A
:102C6000D9630699159A891812911699C91C109161
:102C70000E9A111D0D91F4379073002516240E95B0
:102C800010980078854269D2E11E1F2008401595F2
:102C90003D463746149E324682401BA8139BC018FF
:102CA00049098900435813434350A11E1C220A407E
:102CB000334693404909890042581A4342501694BA
:102CC000611E1D220A4033463E462F46159D934005
:102CD0004909890042581A4342503078C01C30706C
:102CE000384610388E49E43130225CF705FA1298E4
:102CF000405D0F99084003281FD0022820D00128EA
:102D0000169C20D11E202040149981401BA8139AA4
:102D100080186209920083580B4383503078401C1E
:102D200030704020A8400D9A1188014311801298FC
:102D3000405DC0060BD57C480BE07848401C00E0A5
:102D40007848169C05E0002081210E9101E00B9847
:102D50002D3038603037241D6D1C91E73078079F87
:102D6000C7190C980078089A521C07E700290A9E98
:102D70000BD1F9B205984EF740FA0E900C980078F6
:102D800003E0224681210E910A9E2321119B585473
:102D900017A900250D70059909881AAA1180998331
:102DA0001E2131407F22D2438918C9B210910C995B
:102DB00015911294C0B285420E9800D383E000288A
:102DC00000D080E0A80018A908580999898A00262F
:102DD00000960191029010980390E8001BA90A1830
:102DE0001AAF2723384652494EF780F90C226A431E
:102DF0001199891813910A7B1A998918398000282A
:102E0000EFB216952CD10322002311983946FFF713
:102E10008DFD002800D100BE2146169D69430C9A05
:102E200053180F930E33042100220E924DF781FEAA
:102E3000002815D10F98807800070E9810D50F9DA7
:102E40000822002311983946FFF770FD002800D1B1
:102E500000BE2B461433022100224DF76AFE169D58
:102E60000246204668430C990818C41C1046159D5C
:102E700000281BD12078864217D2A819417A17AAB8
:102E800011700079032101405170F3B2152211989D
:102E90003946FFF74BFD002800D100BE0221002279
:102EA00017AB4DF746FE761CE2E700200E90149813
:102EB0001399C873143515950C980078169D6D1CE0
:102EC000129C0A9E76E7002803D0119859F7FFFC60
:102ED00014E0099A119B13612620D0821498D081A6
:102EE00012485060908A5880194622319160F1034F
:102EF000049A11431980002159F7ADFF0024082CD2
:102F000007D018A80059002801D059F7E0FC241D6B
:102F1000F5E70E98C0B21FB0F0BDC0460800020031
:102F2000905BFC070980020009020200A45CFC0718
:102F30001218000000487047EC5CFC07F0B585B043
:102F400014460F46104659F79BFF054680074ED59D
:102F500026205EF74DF90646C27F7978002902D017
:102F600008460F461EE08023032A1AD1B07F397825
:102F70000322814215D10293B97804920A220023D8
:102F8000304601910393FFF7D1FC049A318C8842BB
:102F900030D10C20019948433018F978C173039F50
:102FA00000E01F46B07F010208314F48012A08D1D6
:102FB00089B20623224659F71DFD318C0180011D7F
:102FC00008E0801C89B20423224659F713FD318C96
:102FD0000180811C0F7059F728FD00203084FF20EC
:102FE000F083FD2005402046294659F734FF002094
:102FF00005B0F0BD029FD5E7FEB514460F4610465A
:1030000059F73EFF0546800767D526205EF7F0F8A2
:103010000646BB78002B019701D0F77F1EE0F07FBA
:103020003A467F788023874217D1B07F117881425A
:1030300014D1507900220428029201D828A10A5CF8
:103040000198037A01793046FFF770FC318C884291
:10305000029B03D07F20C34300E007462248012F94
:10306000029304D11906009110D0002710E0B17F1F
:10307000801C0902083189B20423224659F7BAFCA0
:1030800007460298B870308C388019E00199CF88D3
:10309000B17FBA1D93B20902083189B2224659F7AD
:1030A000A9FC3A460746308C38807A8002983871FD
:1030B0000098002804D1781D019909315CF71CF8AB
:1030C000384659F7B2FC00203084FF20F083FD2001
:1030D00005402046294659F7BEFE0020FEBDC046E9
:1030E00014070C0F11000000140C0000F0B587B09D
:1030F0001E4614460D46104659F7C2FE0746C00745
:1031000021D106962E78032E1FD8304652F7DAFBCF
:103110002E785349884218D026205EF769F8E9785E
:1031200000230429059417D002291CD0002921D19D
:10313000AA794021914089B20391012100912D216A
:10314000019114221AE0022086E0032E02D8762094
:10315000C64375E0402673E00093022103910821E5
:10316000019111220AE000930121039108210191AC
:103170000C2203E01722019300930393AC79A97802
:10318000049002912346FFF7D1FB002806D0A988BE
:10319000019A8A42059C17D28D2651E0039A002A93
:1031A00004990ED02320085C029B834209D20C2094
:1031B000029B58430818417B8C4202D2808802420D
:1031C0004CD08126059C3BE001900C2102984143A4
:1031D00004984118081D720082185288039B1342FC
:1031E0002BD0C97B009A8A4202D00188490726D495
:1031F000049831465EF712F80246AB88C120000100
:103200003102083108339BB259F7F4FB06460198A6
:10321000B08012203070A888F08030460830AA882C
:10322000E91D5BF769FF304659F7FFFB01200743B3
:103230002046394659F70FFE0DE08A2600E0892620
:10324000084802230699224659F7D4FB29780170D1
:10325000467059F7EAFB002007B0F0BD8C26B1E7B5
:10326000FFFF00000326000070B5EFF31085012476
:1032700084F3108805200607708DC00509D55348D2
:10328000447101F0EBFF114908701148008820409B
:10329000487030888021014331800E480168072240
:1032A0009143016041684907FCD53188090600D483
:1032B00000BE0949016109494161002D02D084F332
:1032C000108870BD002080F3108870BDC861FC07B5
:1032D000800000500000F4070F009909090404A4BD
:1032E000F8B51B4FBC68204600F034F8374D296C08
:1032F00000222A640E180C4930465BF783FE786181
:103300000A494143881902D00749081A80B2386136
:103310003868082101433960E86B002802D0A042D8
:1033200000D200BEF8BDC046710200008FFDFFFF55
:1033300080B506480021016001F080FE0120C00731
:1033400003490A6882430A6080BDC046A8B9FC07E9
:103350003000004080B50246C00B09D01B48006D0C
:1033600000210B465BF778FE8905800A401880BD76
:103370001648006D4243900A80BDC04680B5FFF7F5
:10338000E9FF80BD80B51149896C414302480818A6
:1033900002495BF737FE80BD20A1070040420F00C5
:1033A00010B501468000094A1418E06D002800D0CD
:1033B00010BD5C3409020A31054804221E2359F766
:1033C00019FBFF2108310180206010BD2876FC0721
:1033D000140E000000B59DB0A448C82118910180CA
:1033E00000244480A248082303801A94A14E1A980E
:1033F000002813DC00201C901C9A1A990B2A0ADC66
:1034000030224A43B1181C9A9200891888621C998C
:10341000491C1C91F0E7481C1A90E8E70E93F06BEA
:103420001294E2430121002817910F4600D017465D
:103430007901F34C25680D43636825601697FD0EEE
:103440000028174600D107467801401918436060EC
:10345000306C0028179F00D01746BB0E0028154679
:1034600000D10546A801C018616801432068616069
:103470001597B90101432160706C0028179F00D097
:1034800017467B0E0028154600D10546E801C018F6
:1034900061680143206861601497F901014321606C
:1034A000F06A0028179F00D01746FB0F002815462A
:1034B00000D105466800C01861680143206861605A
:1034C000790001432160B36B002B179800D01046A0
:1034D000050F002B114600D11946090149196368EF
:1034E0000B432168636003010B432360F762B06301
:1034F0001698F0631598306414987064B06A0028C8
:10350000134600D1034661681943236861600028AF
:10351000179F384600D0104603432360B062706B9B
:10352000002800D01746F90025680D436368256020
:103530007D0F002800D10246D0004019184360607A
:1035400012986060206077631A901A98002837DC20
:1035500000201C901C980B282FDC1C981A990B2813
:103560002BD830201A99414371181C9A920089185F
:10357000896A491C00D100BE1A99414371181C9AEE
:1035800092008918896A002914D01A994843301882
:103590001C9989004018806AC1171C9A5BF7F0FDDE
:1035A0001A9A12015BF7ECFD62680A4321686260B7
:1035B000014321601C98401CCBE71A98401CC3E7CC
:1035C000A24F388819AD28802888C046C046288870
:1035D00004211791C943084202D01298388003E0B1
:1035E000B88901218843B8810E9C0F229002B98BC3
:1035F0000143B983964B188820431880D88D06263E
:10360000B043D8850125A803B98B0143B983188835
:1036100090490140198058880A963043A043588049
:1036200005200F900607718D02921202D88D9043EB
:10363000C9058949894A1FD4032149020843D8850D
:10364000501CD98D0143D985B88BA043B883B88B62
:1036500004218843B8835888814901405980D88D16
:103660002843D885708D4007FCD51EE000310050FE
:10367000023300500077FC070A467D21C90018314B
:103680000843D885D88D1040E9034018D885B88BF9
:103690002043B883B88B17998843B883D88DA84343
:1036A000D885B88B40218843B88328021390674A95
:1036B000908B0321039108439083654B1888202445
:1036C000204340211491C94308401880108C109465
:1036D000204308401084F08A80220C921043084056
:1036E000F082308EFF2188433086308F0E99084358
:1036F0001421884330875B4817990180B0885A4964
:103700000140B180280459490860FFF7ADFD584ACF
:1037100010680721169108401AA908700878022835
:10372000129C20D0708D1399084213D0174601F0D7
:1037300095FD0A2802D80B2001F09AFD4448C08D5F
:10374000C0073A4606D14249C88D2843C885708DC6
:103750004007FCD51068022101430F988143116096
:1037600050684007FCD543480068C1B20C20AA2924
:10377000014600D017993288824388183080C046AD
:10378000C0463D4800683D49098858223C4D0D928D
:10379000AC523C4C22466432918060660127384628
:1037A000C046C046384B181F0068384988421597F4
:1037B00000D076E1029800071790042000210B91B9
:1037C00005461918081F1A46EC32904200D339E119
:1037D00000681C901C9B179C2340092007071C9A1B
:1037E000BB4268D11C9B1F0AFCB2D2B2921F112AA5
:1037F00000D9DFE0920003A39A58234B9746C046B6
:10380000A076FC079138FC073B39FC07FB39FC0725
:10381000FB39FC07FB39FC07FB39FC07FB39FC07CC
:10382000FB39FC07FB39FC07FB39FC07FB39FC07BC
:103830006B39FC079139FC07B939FC07DB39FC0708
:10384000FB39FC07E539FC07ED39FC0704030050A0
:1038500052000050FFBF0000FF0F0000FFEF00000C
:10386000FFF9000000020050FFF7000080E200E0D6
:103870000000F407D07FF807D47FF807D87FF80757
:103880005072FC072876FC07D47EF807A5A5A5A5ED
:10389000B64B22460D9C185DC0001818119292007C
:1038A0005BF72AFCB149085DC0190855C0B205286C
:1038B00058D300BE56E0900F0FD01C98AC498842F8
:1038C0000BD828460830314628311C9A8A4229D123
:1038D000A84BE958A84A518092E01C9820401699BC
:1038E0000907884207D10020C046C046281DA34CC6
:1038F000159FA04B64E71C982040159FF90788424C
:103900000CD01C9820400F994907884206D01C987B
:10391000204003994907884200D07EE0281D974C3B
:10392000944B4DE7B11C1C9A8A426CD1914C295999
:1039300056228E4B9952234662E0592309938B48B5
:1039400022460446C05CC00020181030119292003C
:103950005BF7D2FB0999605CC0196054C0B20D28B6
:1039600000D300BE834B119C47E0E9584843EA5816
:10397000120C801A00B2C0087C4B4033D88088B249
:10398000101A81087E4A11400818401C988011E0E6
:10399000E9584843EA58120C801A00B2C008734B29
:1039A0004033588188B2101A8108754A11400818AE
:1039B000401C18816F4B20E027460B9CA0001AAAE0
:1039C0001018BA005BF798FB38463C190B94032C8F
:1039D00000D300BE674B04460FE0E8585221634A0B
:1039E00050520AE0E8586149086406E0E85854215A
:1039F0005E4A5052000400D100BEA0002818001DED
:103A00005E4C159FDCE6314624311C9A8A420CD16B
:103A1000584BE958584A9180F2E71C98401C574C83
:103A2000544B0FD000BE2846CAE6314620311C9ABE
:103A30008A42524C159F4F4B00D0C1E6E9584E4A7E
:103A4000D180BDE6494D284640301A99818109212F
:103A50001B9A5143130CC91A09B2C908018291B2C9
:103A6000591A8A08464B1A405118491CC1810D9AAF
:103A7000A85CC10701D000BEA85C4008A85459202A
:103A8000295CCA0701D000BE295C4908295454208A
:103A90002A5A002A02D17D22D2002A52042900D0BB
:103AA00000BE5620285A0028364B374D05D12868CD
:103AB000C0B2AA280C9800D06E20E083B18CB94324
:103AC000B18412991A911A99142902DA1A99491C87
:103AD000F8E771893943022211929143718171890A
:103AE0004906FCD5708012981A90E120C0001A99FE
:103AF000814202DA1A98401CF6E7708903998843DC
:103B0000708170890006FCD57F206070A8691F4A0B
:103B1000D060EFF3108587F3108830880C99084344
:103B20003080186816998843186058684007FCD59B
:103B3000174818611748586130880C9988433080BD
:103B4000708D139908420CD012986071107801F0B2
:103B50008FFB11490D484078002802D1C88DB84329
:103B6000C885002D1AD087F310881AE05072FC0720
:103B70004C420050D47EF807A000FC072876FC07D2
:103B8000FF3F00000000F407D07FF807C861FC0782
:103B90000F009909090404A452000050002080F38A
:103BA0001088129B0F9CAF4D2F68AF480068AF493B
:103BB000884200D0D6E0AE48AE495BF7B6FA169818
:103BC0000102AD485BF7B1FA2F60FDF71CF8AB4876
:103BD000AB490160AB48AC492746302422465BF72D
:103BE0008BFAAA480025C571857145710571C570AC
:103BF000857045703F2117910170A548A5A1149AC1
:103C00005BF77AFAB3480570B348B4490160B44829
:103C1000B4490160B449B5480860B5480A2101704B
:103C2000B4480F950570B44832210170B348394645
:103C30000760B348159F0760B2480160B2480A990F
:103C40000160B24816990160B1480E9D05603802C6
:103C50000090801DAF490860AF490860AF488449B3
:103C6000016000F0C3FC38463EF74FFE30890494F3
:103C7000A043308130890C99084330813089284332
:103C80003081308CB843308470891821884370812A
:103C90003089149908433081308A04218843308266
:103CA000B08A8007FCD5F08C9D4908400B210902A1
:103CB0000143F184F08C3843F08470890E990843F5
:103CC00010210D9188437081708CB84370843089C5
:103CD00014998843308193483730BC0721680140EC
:103CE000216017984002904A1168814378030818B0
:103CF00010608E48401C11680143116087480068BD
:103D00003EF7A8FA20680099084317942060884C71
:103D10000F9D2571E570544800685449884241D090
:103D2000009DC0350121284658F756FD0346814ABB
:103D3000D0681072010ED172010C9172000A50729B
:103D40001F461846002D17D06D1EE95D02781346F8
:103D5000039C2340774CE3181B7A4B40534003707D
:103D6000401CEFE7744875496202934200D922E78C
:103D70001A585A501B1DF7E76E4834301C2239463A
:103D80005DF74EF9002800D000BE384658F79FFD79
:103D90006848406B3EF7B9FD334834490160159FD0
:103DA0000F9D634CFDF7E0FD384600F069FDE570BE
:103DB00063480570634CA560E56025610E2222759D
:103DC0002046153060495BF797F9E58604245F4982
:103DD000204659F70EF812942046294659F73BF829
:103DE0005FF786FC5248C5705548057058485949D8
:103DF000486301F077FAFD2008210E915FF760FC1F
:103E0000FDF77CFCA12016908000019001F0B4F930
:103E100000282F4600D0AEE04F4DA8887C210143FA
:103E2000A9804448046B01F099F94C4801F03CF931
:103E3000A8881C21014360208143A980484884420E
:103E400001D3019C01E0474824181099464D0020F9
:103E5000002C00D18AE001F027F910992870641E27
:103E60006D1CF4E75CBAFC079CB8FC07658734124C
:103E700000A0FC07AC14000000B9FC0760BAFC0706
:103E8000205DFC0700BAFC077CFCF107DAB9FC07EF
:103E9000B0BCFC072000800000C0000000008400CF
:103EA00000002822000000000000040000F7FFFFCF
:103EB0007F00000030F0FF0F000000000004000051
:103EC00000000000000000000000000000000000F2
:103ED00000000000FDB9FC0750B9FC07603FF20785
:103EE00054B9FC079C5EFC0758B9FC07A05DFC07B1
:103EF000B0B9FC07B1B9FC07D9B9FC075CB9FC073C
:103F000060B9FC0764B9FC0768B9FC076CB9FC0729
:103F100070B9FC0748B9FC0744B9FC074CB9FC0769
:103F2000FFF00000C8FEFFFF00020040FFFF1F007F
:103F300054BAFC07C861FC0700B0FC075877FC07BF
:103F4000B4BAFC07A076FC076460FC078458FC0741
:103F50003153FC072876FC070012005000E00103F3
:103F600084E201000020FEFFA073FC07C74A908492
:103F700010880843108001F009F9C549C54C208814
:103F8000C54DC64AA84202D1605A90420BD016983D
:103F9000810020465BF7C9F8BD48C0492152258001
:103FA0000020FDF71DFCFFF7C3F9BD4D18982880D0
:103FB000BC480E990180159841020591C0031690E6
:103FC000B948BA490818BA4940188008401E0B90F1
:103FD000B8493089000600D404E11798006B169A9E
:103FE000104200D0FEE00888C00700D0FAE059F780
:103FF00004FA0024204600F043FCAE49AE48407B62
:10400000042800D0EEE0159800F03AFC1A941AA8A3
:104010000425294649F792FDA84A002800D1DFE08F
:1040200015981060A44910680028FCD11798C06941
:10403000496A884202D2A0494C622146411AC90904
:10404000192900D2CCE00A959D4D298809916988EB
:104050000891A9880791E98806912C80059910316B
:104060006980149AAA804C21964B595AA981924989
:104070004862A88910430499C9430840A88192481E
:104080000260BFF34F8FBFF36F8F288810432880E3
:10409000E88810430840E88028880A9988432880E7
:1040A000A888C0B2A880E88870210140402914D1B6
:1040B0005220185A00288549854A00D00146D180EF
:1040C0008448401C7E4B1988014319808248D430B3
:1040D000002817D000BF401CFAE728887F49084015
:1040E000288068887E4908406880688803998843EA
:1040F00068807C4A10464038298801402980104653
:10410000734A1DE06E4D2888059908432880288849
:1041100014990843288068880A9908436880688849
:1041200071490840688002984002698801436980AB
:1041300068886C49084013998031014369806B4855
:104140006988014069802888159908432880288853
:1041500011990843288028888007FCD41598E881A5
:10416000288AD188401A7D21C9004143002804DCF7
:10417000F14A8918C017084002E0019840185130F0
:10418000EE495AF755FF85091935DF4948787F28E8
:104190001CD0281A41B2C9114840401A40B2082820
:1041A00015DBD949886A401C886200F097FB00F053
:1041B000D5F900F049FE01F01DF900F0A7FBFDF76D
:1041C00073FAD1491198D84A907014804D70D7482D
:1041D00008994180079981800699C18009990180D9
:1041E000C54DCF49EFF3108072B6087902283846E2
:1041F00002D0C7480068806A1A90C048C088C007CB
:1042000000D075E158F7C5F9C549002800D16FE124
:10421000C878002837D0B08AC00700D0C4E008882A
:10422000002830D1C648806A002803D0B84800680A
:10423000806A1A9000F002FFB94CA1781AA858F7CA
:10424000A0FF214600281ED01798006940061AD406
:10425000B34881781AA849F771FCB149002812D0F7
:10426000B34A1088B74908401399084310801A9A36
:10427000002A3DD0179F386AA6494018DA2839D855
:10428000521E1A9236E030BF32E1C0460012005092
:1042900082020000A073FC073512000022430000D8
:1042A0000031005002330050586000001001FC073C
:1042B000030004F854BAFC072876FC07FC00004011
:1042C000001500505072FC0780E100E040760000CD
:1042D000C861FC07FF0F0000C8FEFFFFFFEF0000F2
:1042E000FFE100003FFE0000FF1F0000FCFF000098
:1042F0000022179FBB48008C844C2169081860611C
:10430000F86B914B18400843F863F86B8F490840ED
:10431000A16989020143F963F86B8049084061692A
:1043200049050818F8638A48824200D300BEAD4CA4
:10433000206F616F00235AF78FFE0903000D4118AB
:1043400072488069821C8A42224600D0481ED0638F
:10435000734909794A1E914145F706FB7D48C06AB9
:1043600080471699386B0842FCD000996A4C206847
:104370000842FCD020680C99884320605F4800897F
:10438000452805D846215D4A1181081A95490864D7
:104390003DF79BFFA0689349886320680006FCD521
:1043A00030890C99884330815E480178308A129BAD
:1043B000184330825F4A106818431060504C2089BF
:1043C000159FB8432081708A012904D10D99884333
:1043D0007082F04A2DE00D9C20437082708A184351
:1043E0007082FEF741FF708A2043708245480B9926
:1043F0000162EFF3108087F3108831880C9A9143A3
:104400003180002802D087F3108802E0002080F37A
:104410001088E04A708D139908420AD00020DC49C8
:1044200048710B2000F024FFDA4AD08D159908431B
:10443000D08500203083718D139B1942109B04D1CD
:104440001188149F3943994311802D4C218C149F5E
:10445000394399432184B18C159FB943B1841A9093
:104460001A99142903DA1A99491C1A91F8E77189E3
:104470003943119FB943718171894906FCD5708018
:10448000B08AC00603D51D48801E0E99018030BF3A
:10449000B08AC0060F9F02D518480E9901802148A6
:1044A000007802280AD1708AC005800F2A49088046
:1044B000308D4880B08C8880308CC880708D139986
:1044C000084207D1D08DC00704D010881843149932
:1044D000884310800A4A108C18431499884310842A
:1044E00000F084F813490868129A904308600C4958
:1044F00062B6189828806CE50031005002330050F5
:10450000040300500000F4072876FC07C861FC078C
:1045100058B9FC07C8FEFFFF00020040FFFF1F0064
:1045200054BAFC07B4BAFC07041000400015005050
:104530003830005010ED00E02BFDFFFFAA05000011
:1045400074BEFC07FFFC000000FCFFFFFF03E0FF60
:1045500040420F0058BFFC07A000FC0710B55921CE
:104560000C48415C103000228A4204D218C81C60FA
:104570000030521CF8E710BD10B558210548415CC9
:1045800000228A4204D218C81C600030521CF8E78E
:1045900010BDC0465072FC0770B5CD4C667CB000B3
:1045A0002518686D5435002816D131020A310E489D
:1045B00004220E2358F71EFA09210170002E00D0A4
:1045C00000BE1021818028600021818141817D22EF
:1045D0000281C1800821418058F727FA0020A07489
:1045E000286070BD2876FC070E0E0000F0B585B07F
:1045F000654E01273780654CE08CC00519D56448AD
:104600004079012803D100F029FE1B2811D8614D03
:104610002888C00400D4308CFF201C305E490880FC
:104620001B2000F025FEE88D3843E885E08C40072C
:10463000FCD5FCF7D2FAEFF3108187F310882288BB
:104640004020029002432280002902D087F3108884
:1046500002E0002181F3108850490A880A88D207B5
:10466000FCD14F4A93898020034393814D4B0B2506
:104670001D8008231380002595809389049083432F
:1046800093810320039090818F830D848D84404813
:1046900045630773404A283243A33946C1CBC1C2A0
:1046A000EFF3108081F310888A022388134323805C
:1046B0000028019102D081F3108801E085F3108871
:1046C0003C4A2023138090881C21009108436024D9
:1046D000A04390809088039988430E4690809088EC
:1046E0000499884390802A4F3879FE2404403C7115
:1046F00095811089084310813879F1240440A01C69
:104700003871108930437C218843108110880299C8
:10471000884310801088984310800520264C294635
:1047200032462B46A0473702062004220292394621
:104730002B46A047072039462A462B46A047264647
:104740001D22019C204639462346B0471B2228469D
:1047500039462B46B0471A22039829462B46B047C4
:1047600002983946009A2B46B0470749888920436A
:104770008881124841680068000600D400BE1048D5
:104780000499018005B0F0BD000300500400005002
:104790002876FC0752000050C861FC077C110050CD
:1047A00000110050C01100501300000001431F0011
:1047B0000000040000120050890DFC07A076FC07E1
:1047C000043000500549884200D000BE04480188EA
:1047D000044A11408918091D0180704711111111F7
:1047E00012000050FC7F0000F8B504460026234F5D
:1047F000482E0FD0BD19E88AFD2801D1064969600D
:104800005CF77CFD002803D082682846214690474B
:104810001836EDE7F8BDC0462C5BFC07B0B50025A7
:10482000164C002815D0022D27D8E08A5CF766FDCB
:10483000002802D04168204688470020E08160605F
:10484000A060FF20E082207D58F72DFB18346D1CFE
:10485000E9E7022D11D8FF20E0820020206060608F
:10486000A060E060206128461030C0B2A0822146DE
:1048700058F7BFFA18346D1CEBE7B0BDB072FC07F7
:10488000B0B5134D2978012921D11249002803D050
:1048900008884007FCD402E00888400717D40023AA
:1048A0002B70C8888988000444181F2040064921BD
:1048B00022465EF7D5FD2867696764214143080CED
:1048C000A86405486043800B401C40082865B0BDC3
:1048D0002876FC07001600501111010082B0F9483B
:1048E0000821017000210191019A102A05DA019A2C
:1048F000521C0192F8E70099491C00910099102977
:10490000F9DB0321417002B07047C046F0B585B0B5
:10491000774803230370774D284614380168142222
:104920000A436B218A430260A86A7349C861002662
:10493000F043A86228683F218843286028686F4FA9
:104940003840286068686E490840012101918C0256
:104950000019686068684021014330208143696024
:10496000A869684908400B2149064018A861A86950
:1049700065490840029359024018A861A8691821A6
:10498000014327208143A96143202871FDF73AFAAA
:10499000FDF7A6FA039604960498A04203DA049859
:1049A000401C0490F8E75248029901705748066885
:1049B000FDF70EFA039804900498102802DA049880
:1049C000401CF8E7286852490840F1054018286063
:1049D000403728683840490C014329604120009045
:1049E000287168684649084020436860FDF70AFA64
:1049F000FDF776FA039804900498A04202DA04982E
:104A0000401CF8E73A480299017040480668FDF7F3
:104A1000DFF9039804900498102802DA0498401CE7
:104A2000F8E728683A4908403A490E40F10540182D
:104A3000286028683840B101014329600098287136
:104A400068682F49084020436860FDF7DBF9FDF7EF
:104A500047FA03980490284E0498A04203DA049879
:104A6000401C0490F8E72248029901702748046826
:104A700028682749084027490C40E105401828606C
:104A800028683840A101014329606868019988437A
:104A90006860F069A86228681C21014323208143D3
:104AA00029602868154908402860A8691549084008
:104AB000072189060143A961A869134908400F210C
:104AC000C9010143A961A8691E2101432120814335
:104AD000A961FDF77DF90398049004980F2802DC82
:104AE0000498401CF8E74E20345205B0F0BDC04693
:104AF0000510004018300040C861FC07FF7FFFFF31
:104B0000FFF9FFFFFFFFFFC03FF0FFFF88300040CD
:104B1000FFFF7F00FF01000070470000F0B58BB081
:104B20003022002181541F221204304B1D6895430E
:104B300001246204AA181A602E4B2F4D45612F4D97
:104B40002F4E304F304AC26106624362284A826269
:104B5000C5622E4A07604260E004B74A1368834387
:104B60001360282903D001A84154491CF9E72848BB
:104B70000068403001A928225AF7BEFA6D48047037
:104B8000FFF7ACFEFFF7F8FCFFF7E8FC00F05CF97C
:104B900000F030FC00F04AF8FFF7B8FEFCF784FDA7
:104BA000FCF796FD1B490B881B4804681B4A144000
:104BB000E31803601A4B1C88856915402C19846121
:104BC0005B88C4691440E318C3614B8A046A1440CB
:104BD000E3180362898A436A13405918416298486E
:104BE00002218170002101800BB0F0BD74000040F3
:104BF000294CFC07254CFC070D4DFC07F14CFC072C
:104C0000C10FFC07C94CFC07CB4CFC07194BFC0738
:104C10004CB9FC071030004088A0FC070000FFFFE3
:104C20006430004000207047704700000E4908883B
:104C30000E4A024001204302D2180A8041057E4AF2
:104C400013688B431360810700224A671F221204F6
:104C50004B6F93434004181848670868E0220243EA
:104C6000102082430A60704738300050FFFC00007B
:104C700080B51F20000401218A07536F8343480435
:104C80001818506710680721884310600C48018885
:104C900008220A430280FFF721FEFFF76DFCFFF7B1
:104CA0005DFC00F0D1F800F0A5FBFFF7BFFFFCF7BB
:104CB0000FFD6348022181700021018080BDC04644
:104CC0000800005004100040704780B5E62800D36B
:104CD000E620282800D82820F9214A0042437D20D8
:104CE000C10010465AF78EF97F38C0B280BD00006F
:104CF0000548016807220A430260012080044E49EA
:104D00000A6882430A60704730000040022902D0DE
:104D1000012900D000BE002802D0FF2804D000BE28
:104D2000022901D10C207047B5480078002800D036
:104D300009207047AC72FC07F8B53F480168C90705
:104D400003D0016802220A4302600124016849027B
:104D500003D5A10502680A430260270265023749AC
:104D60000095084608380668002E63D0300606D540
:104D70008020086048F78BFDFCF7F6FD2F49B0074F
:104D800004D50220086044F780FC2C49300714D574
:104D900008200860FBF7E4FE3D4627460024204635
:104DA00044F72CFC25490420F24A50730220244A7F
:104DB000907014803C462F46009D3E4204D00F6008
:104DC000012044F71BFC1D492E4203D00D6048F71B
:104DD000C7FD1A49700604D54020086044F709FC55
:104DE0001649F00604D51020086042F7C5FF1349A4
:104DF00070070FD50420086012490888A043088076
:104E000058F762FB3DF71CFCFCF7AEFD0B49002098
:104E1000D84A5073F00707D00C6058F771FB48F779
:104E200036FD0649D3484473B0069AD52020086061
:104E300000BE96E7F8BDC0460002004018000040E2
:104E40000410004008330050FCB57F2000025A4A8D
:104E5000516981430B20000208185061106880B22C
:104E60005649401810609069554C0440012358037E
:104E7000009020189061032001900002146B0443FD
:104E80001463908F10240443948790881843908073
:104E90004C484D4A02604D4A104610384C4CA58B88
:104EA000054015204301E8185030A0836069494D42
:104EB0000540494828186061A069484D054009200F
:104EC00040022818A0612068454D05404548281833
:104ED00020606068444D0540444828186060A06820
:104EE000434D054043482818A060E068424D054006
:104EF00042482818E06042480078002802D1C120CA
:104F0000400100E03F48404D2860052080023F4FAF
:104F10003880401DB880388C55260643AA20864329
:104F20003E84FF266C363046C930388538490846FD
:104F30000E30B88537483886B986C01D3887364860
:104F40002085A06B3549014035480818A063354CD1
:104F50002680208F10401F462037C01920873248F6
:104F6000018811408919D531018081881140C91803
:104F7000818001891140C91901812136A6802B4801
:104F800001881140C91860310180818A19220A43C1
:104F900006218A438282A88F25490140009808187B
:104FA000A88724480168019A1143042291430160B3
:104FB00021486866FCBDC04620300040000088885B
:104FC000FF00FEFF8000004059055C071FFCFFFF4B
:104FD000042000400000E0FF09581A00FEE1FFFF36
:104FE000E0E000000809294900000303696A686CD1
:104FF000031FFFFF70600000E0E0E0E00B0A0A081A
:10500000AC72FC0720180009001000402813004073
:10501000260A000051080000070F00002F64E0FE80
:10502000101A06010012004044120040881200408D
:10503000FF9F00008010004050015001F8B554203F
:1050400013490E5AE64FBC6C304660431149401874
:10505000114959F7D7FF054638843C3666430D4859
:1050600030180D4959F7CEFF001DB94908612818BD
:10507000C01D8861094A1278022A01D11130886165
:10508000FEF768F90649401880B258F747FAF8BDAC
:105090005072FC0720A1070040420F00B4BAFC0781
:1050A000E20400007047000010B56B498A88520680
:1050B000D20E1CD0530813439C081C4312092243F0
:1050C000130A13431A0C1A43D24353081F4C1C40B3
:1050D000121B1F4B94081A401C4012191309D218B6
:1050E0001C4B13401C4A5A43120E1D3A00E0032287
:1050F0000B881F24A3430B800B8802241C430C80C5
:105100000B8804241C430C800B8801241C430C8056
:10511000D3175A40D21AD2B2022A01D3030C0B85FC
:105120000884088BC004FCD4022A02D3088D020430
:1051300002E0002A03D00022888B104301E0888B14
:10514000C0B218228A5E002AFBD410BD55555555B1
:10515000333333330F0F0F0F010101013E48018834
:10516000202291430180DE4909790907490F818492
:105170007047C0462876FC0780B500F019F8012179
:10518000014048420D21884380BD000080B5FFF7F3
:10519000F3FF002800D080BD264801881C220A4366
:1051A00060218A430280B92000F046F880BDC046E5
:1051B00080B5204801883C220A4340218A4302806E
:1051C0000520000200F038F880B280BDB0B500259F
:1051D000074C611CA94205D06D1CFFF7E9FFC00711
:1051E000F7D1691E0020A14200D9C043B0BDC0461E
:1051F0007F841E0080B5FFF7BFFF002817D10D4840
:1052000001881C220A4360218A430280062000F0A4
:1052100013F8FFF7DBFF002801D0FF2007E0FFF7BE
:10522000C7FF800701D5002001E00B20C04340B23A
:1052300080BDC0460412005010B50446FFF78EFF33
:105240002046FFF731FF044900228A840A88202380
:1052500013430B8010BDC046001200500E48018859
:10526000890918220A4000888004400F801870477E
:1052700010B51F21490282010A4007490B88074CDB
:105280001C4014430C800A88054B13404007800CD7
:105290001818088010BDC04654000050FFF90000E7
:1052A000FFC7000080B52A49C988401A7D21C9007E
:1052B0004143002804DC074A8918C017084001E070
:1052C00005480818054959F7B3FE8009193040B25E
:1052D00080BDC0462BFDFFFFD5020000AA050000DF
:1052E0007047704710B5A14901220A7200208883D7
:1052F0001748001D08633B4B08201860BFF34F8F11
:10530000BFF36F8F384B1C8814431C801A88042409
:1053100014431C80097B4A1E9141C907FF221206D3
:10532000324B1C689443611819603149086010BD04
:1053300080B5F54881780279F44B5A54491C817044
:10534000212A02D10121C17080BDFFF7CBFF80BDB2
:10535000C861FC07B0B58548818B4C424C41026B5B
:10536000037A0C491C40012C08D18C8AE4070FD029
:105370000C880125858314700024F3E78A880123B3
:105380009A438A80406B002802D00020FFF7D0FFAC
:10539000B0BDC0460011005010B5744AD062918271
:1053A000002010830F4908200860BFF34F8FBFF320
:1053B0006F8F0D490B8802241C430C800B888024BE
:1053C0001C430C80117B4A1E9141C907FF22120623
:1053D000064B1C689443611819600549086010BDAC
:1053E0002876FC0780E100E00411005000E400E0B2
:1053F00000E100E018B50848016800910099074AEB
:10540000009B1A40FF2424040C40D9B20919044B14
:10541000C9181143016018BD8000004000FF00FF63
:105420000A000A0080B5442801D1FBF76BFF80BD5C
:10543000F8B504460C2000906043284F3E18B07A1F
:105440000A36FF281FD0264D6C744888082807D3D9
:10545000102805D88888002802D1C8887D2805D062
:105460007D20C0001F49FBF7C9FFA8747868386821
:10547000000600D400BE1C48802101801BA00A2128
:10548000FFF78AFF01E0FBF73DFF3078FF2821D0CE
:105490000025194E0C2D05D07019816820468847CB
:1054A0000C35F7E7A0000E490E18306E6036002864
:1054B0000BD121020A3111480422022357F79AFA2C
:1054C0000121417000990170306057F7AEFA002059
:1054D0003060F8BDFBF716FFF8BDC046A076FC07AC
:1054E0002876FC079945FC0702300050626C655F26
:1054F00072656164792100000061FC071A0E0000EA
:10550000F8B51A4EB77C002F23D00A2F1CD8B8004C
:1055100017494418606B002818D01649884215D0E6
:10552000343415483818401C0425294657F7EBFD3C
:10553000104820600823104829462A4657F75AFA8F
:10554000077057F772FA02E000BE00E000BE0020CC
:10555000B074074841680068000600D400BE0748E0
:1055600080210180FBF7CEFEF8BDC0462876FC07FF
:10557000A076FC07E152FC07020400000430005052
:1055800080B564480178002903D10121017000F041
:105590007FF8FBF7B7FE80BDF0B587B01D46164615
:1055A0000C462B49884212D02A4988424ED13748AE
:1055B000801C04232946324657F71CFA002141700B
:1055C00021780170A1788170E178C1703CE002A877
:1055D000142159F7AAFD6078002701283946019760
:1055E00014D1E07801280FD0002100280F460DD1FA
:1055F000A079002102280F4608D80C2141432248F7
:105600004018478802A901E02F2713A100913846CE
:105610000A3083B21D482946324657F7EBF9064651
:105620000198B070280A307060787070A07830717E
:10563000A0793072E0787071F780304609300099B7
:105640003A4659F759FD304657F7EFF907B0F0BD24
:10565000042600000626000005010906A1018502B6
:10566000050719E029E71500250175019508810254
:1056700095017508810395067508150025650507D0
:10568000190029658100C000FC5CFC0705260000AC
:10569000F8B51D4DE87801282DD1A9781B4C20467E
:1056A000FFF77AFEA8780019401E00260670184FF2
:1056B000207800281CD029462031CE70802801D9BE
:1056C0008022504038567F2202408A70002804D53C
:1056D0002020295C02220A432A54FBF703FF2020E2
:1056E0002E54EE84AE846E84FBF7FCFE641CDFE770
:1056F0006E80FFF7F7FD07480078012803D10A20E4
:105700000549FBF77BFEF8BDC861FC073662FC0764
:105710009458FC072476FC079156FC071C4988889E
:10572000072290438880052000078A89D20710D07D
:10573000098800290DD117494A8802858A88828400
:10574000CA880284428A144B13400988C90119434C
:105750004182124906220A800121CA03104B1A60B5
:10576000BFF34F8FBFF36F8F02221A60BFF34F8FCB
:10577000BFF36F8F1960BFF34F8FBFF36F8F4189F6
:105780000422914341810021018062B67047C046E6
:1057900004030050A000FC077FFE0000003400500E
:1057A00080E100E00906FC073709FC07470AFC070F
:1057B000F99DF00700000000E3A1F10700000000E0
:1057C0004FA4F10700000000010000001130EF00BD
:1057D00000000200020000001230EF000000040090
:1057E0000300000000421F0000000200040000004F
:1057F0001120C20000000200050000001128C200B4
:1058000000000200060000001228C2000000040090
:105810000F0000001160850000000200120000006F
:105820001264C800000004001300000001431F00C0
:10583000000004001400000001111F00000004001B
:10584000150000000C441F000000080000000200CA
:105850000000000000000000020000000000000046
:105860000200BA5C49D204A34071A0B535853EB0B0
:105870008307B85C49D204A34071A0B535853EB01A
:105880008307000000000000583FF2070073FC0788
:105890000400010000000000000000002A2B280086
:1058A00000000000000000000000000000000000F8
:1058B000000000002C9EB4A0A1A2A434A6A7A5AE0F
:1058C000362D3738271E1F20212223242526B333C7
:1058D000B62EB7B89F8485868788898A8B8C8D8EF3
:1058E0008F909192939495969798999A9B9C9D2FBF
:1058F0003130A3AD350405060708090A0B0C0D0E5F
:105900000F101112131415161718191A1B1C1DAF9E
:10591000B1B0B50002140000211EFC07010D00000B
:105920006522FC07000D00000522FC07000E0000A8
:105930009920FC07010E0000B120FC07030E0000B7
:105940002121FC070A0E00006D21FC070C0E00004F
:105950008531F2071C0D0000C731F207100D000061
:105960008530F2070F0E0000F931F2072C0E00000F
:105970003932F207120C00005332F207080E000011
:105980006F32F2071B0E00009F30F2072914FC074C
:105990005915FC073915FC076D12FC077D11FC0732
:1059A000F8000000130E00003120FC07150E000067
:1059B000591FFC07170E00006121FC07190E00009B
:1059C0004921FC07150D00000122FC07210D0000F4
:1059D0009522FC07220D00009122FC07080004908C
:1059E0000000000000000000030005D08B0035F02F
:1059F00010005CF0000010B0000018B000001AB0F9
:105A0000030051F0000038B000003AB0000064B06C
:105A1000000066B0000022B0000024B0010005D0F4
:105A2000000000000A00008008030490000004F059
:105A3000030006D0000000000A0000800803049064
:105A4000000004F0030006D0000000000328002836
:105A500002290129FD0000008C5AFC070800000003
:105A60004911FC07000000000000000000000000D9
:105A7000FF00000000000000000000000000000027
:105A80000000000000000000000000004E5AFC076B
:105A90001000000001000000100010007F5BFC07F8
:105AA0004C5AFC0702000000010000001300130024
:105AB0004061FC076258FC071000000008800000ED
:105AC000F400000000000000525AFC070200000031
:105AD000010000000E000E004460FC074C5AFC0759
:105AE0000200000001000000130013005361FC07D6
:105AF0007258FC071000000000020000F4000000D3
:105B000000000000505AFC0702000000098002005B
:105B10000200000000000000525AFC0702000000D2
:105B2000010000000E000E005360FC07345BFC0710
:105B300009000000130C00004B29F207150C0000AF
